:100000000C94A0010C94C8010C94C8010C94C80174
:100010000C94C8010C94C8010C94C8010C94C8013C
:100020000C94C8010C94C8010C9404230C94732301
:100030000C94C8010C94C8010C94C8010C94C8011C
:100040000C94C8010C9429260C94C8010C94C80186
:100050000C94C8010C94C8010C94C8010C94A525FB
:100060000C94C8010C94C8010C94C8010C94C801EC
:100070000C94C8010C94C8010C94C8010C94C801DC
:100080000C94EF250C94C8010C94C8010C94C80181
:100090000C94C8010C94C8010C94C8010C94C801BC
:1000A0000C94C8010C94C8010C94C8010406060500
:1000B0000608060607070808FFFFFFFFFF02040304
:1000C00005050604040405FFFFFFFFFFFFFF0D0DFC
:1000D0002936435029364350293643501B280E0EEB
:1000E0000E0E1B1B1B1B282828280D293643500DDC
:1000F000293643500D293643500E0E0E0E0E1B1B93
:100100001B1B1B2828282828DC0024E2164AD0E8DC
:10011000001830E904234261DCE8F4000C182406DE
:100120000E1A2C3E4A5612160C080A141E28323C8F
:1001300046505AD5F08D14A1C881CFD9F1AF200017
:10014000DB20C0A0D921A800A800A83F010202031B
:10015000030404050506060707080809090A000044
:10016000060807090809060705060A0BFFFFFFFF37
:10017000FF0708FFFFE7F3E7FFFF2A7F2673267FCD
:100180002A2A7F2673267F2AFFFFEBE3F7FFFF2A49
:100190007F2A63367F2A2A7F2A63367F2AFFFFF36E
:1001A000E7F3FFFF2A7F3267327F2A2A7F326732E6
:1001B0007F2AFFFFF7E3EBFFFF2A7F36632A7F2AC0
:1001C0002A7F36632A7F2A0708FFFFFFFFFFFFFF12
:1001D0002A7F3E7F3E7F2A2A7F3E7F3E7F2AFFFF87
:1001E000E3EBE3FFFF2A7F226B227F2A2A7F226B29
:1001F000227F2AFFFFE3E3E3FFFF2A7F2263227FC0
:100200002A2A7F2263227F2AFFFFEBF7EBFFFF2AD8
:100210007F2A772A7F2A2A7F2A772A7F2AFFFFEFE1
:10022000F7FBFFFF2A7F2E773A7F2A2A7F2E773A25
:100230007F2AFFFFFBF7EFFFFF2A7F3A772E7F2A07
:100240002A7F3A772E7F2AFFFFE3F3F3FFFF2A7F0F
:100250002273327F2A2A7F2273327F2A080B000200
:10026000020200000904000001020200000524004F
:1002700010010524010101042402060524060001E1
:100280000705810310004009040100020A00000074
:100290000705020240000007058302400000040336
:1002A000090412010002EF020140412336800001DF
:1002B0000102030141726475696E6F204C4C43006A
:1002C00041726475626F7900000D0C0C140F0C1AEA
:1002D00017001F292724241C2724020202020A14C3
:1002E0002850505050505050505050505050505036
:1002F000505013242C3000111A1D13242C300017D9
:100300001C1D00242C3000171B1D13242C30001141
:10031000191D14242C3004111A1D1C242C30041116
:10032000191D252B30300F171C1A0417272F3335B2
:10033000394151040206080A020406080A00402650
:1003400011241FBECFEFDAE0DEBFCDBF11E0A0E089
:10035000B1E0ECE6F5E602C005900D92AA32B107D5
:10036000D9F728E0AAE2B1E001C01D92AB3AB2078A
:10037000E1F711E0C0EAD1E004C02197FE010E943C
:10038000AE32CF39D107C9F70E94B7260C94B432E8
:100390000C9400002091D6063091D706280F391F03
:1003A0001816190644F42436310550F43093D70654
:1003B0002093D606089537FFF9CF30E020E0F6CF3E
:1003C00023E630E0F3CF80919108882339F0833021
:1003D00020F480919008811105C0089580919008C3
:1003E0008230D8F3815080939008F7CF9091900895
:1003F000992339F0953020F490919108911105C01E
:100400000895909191089230D8F3890F80939108C4
:10041000F7CF94E19093D5061092D7061092D606A6
:1004200081E08093D8061092D9069093DA068093E3
:10043000D40610928C061092910610929606109295
:100440009B061092A0061092A5061092AA06109282
:10045000AF061092B4061092B9061092BE06109222
:10046000C3061092C8061092CD060895E0918C063E
:10047000EE2331F0E150F0E0E85CFC4F8491089508
:1004800080E00895E0919106EE2331F0E350F0E032
:10049000ED5CFC4F8491089580E008959091DA0618
:1004A0004091D506282F082E000C330B240F311D48
:1004B000181634F49217130634F0982F940F03C0D3
:1004C00090E037FFFACF9093D506089592E081111E
:1004D00090E085E0989FF0011124E457F94F80E007
:1004E000208121118F5F9F5F35969E30C9F7089557
:1004F000CF93DF93FC018081882301F1833078F46E
:1005000080918C0681111AC085E0ACE8B6E00190BC
:100510000D928A95E1F780E0DF91CF9108958530C3
:1005200068F480919106811109C085E0A1E9B6E0E7
:1005300001900D928A95E1F781E0EECFEF0180E026
:100540000E9466028D3098F4282F30E02E5F3F4FD6
:1005500095E0929FD001939FB00D1124A457B94FFD
:10056000FE0101900D929A95E1F78E5FD5CF8FEF46
:10057000D3CF95E0899F900111242457394F8230C1
:1005800088F08D3060F495E0F9013596D90101903D
:100590000D929A95E1F78F5F2B5F3F4FF2CF10924C
:1005A000CD060895F90110820895982FECE8F6E041
:1005B00080E02081291302C00C94B9028F5F359628
:1005C0008E30B9F708952091D20690918E08291B9C
:1005D000330BA901480F511D87FD5A95CA0120917F
:1005E0008C082417150689F080F02091D3063091ED
:1005F0008F08231B330B260F311D67FD3A95409161
:100600008D084217130609F018F4809166060895C4
:100610006FE0629FA001639F500D112442545A4F16
:10062000840F951FFC0183810895962F20918B06DE
:10063000213051F030F0223049F0233059F080E081
:100640000895682F6195892F0C94E302682F892FF4
:100650008195FACF6195FCCF9091D206980F809149
:10066000D306680FE2EEF6E080E02081222351F00D
:100670002181921303C02281621729F08F5F359682
:10068000853599F78FEF0895962F20918B062130AD
:1006900051F030F0223049F0233059F08FEF0895B7
:1006A000682F6195892F0C942C03682F892F8195D1
:1006B000FACF6195FCCF95E0899F900111242E51CE
:1006C000394F843560F495E0F9013596D9010190F0
:1006D0000D929A95E1F78F5F2B5F3F4FF2CF10920B
:1006E000860808950DB407FEFDCF8EB51EBC089593
:1006F000CF93DF93C82FD62F0E94E302811128C029
:100700006D2F8C2F0E942C038F3FC9F0482F50E093
:1007100095E0899FF0011124EE51F94F8081803AD4
:1007200009F46EC008F5843360F4823308F08FC09A
:10073000853028F08C3088F08E3008F4A3C081E03A
:1007400077C0883638F4843608F06CC08833B8F740
:1007500080E06EC08D57823190F781E09091BF05A7
:10076000973B09F065C0F4CF873B28F5833B08F041
:1007700062C08B3A09F444C090F4883A01F7809142
:10078000BF05873B29F3ECE8F6E080818A3009F465
:100790008CC0359686E0E23DF807B9F7D9CF8F3A9D
:1007A00070F28091BF05873B99F280918B08813070
:1007B00001F188E03DC0833CF0F42091BF058D3B02
:1007C00008F440C0273B21F2949FF001959FF00D63
:1007D0001124EB51F94F80818F3F09F4B0CF809104
:1007E0009B08833009F063C080918B08813009F049
:1007F0005EC089E01DC0865E8A3008F4A9CF9FCF15
:100800008091BF05873B09F4A3CFECE8F6E082EDC9
:1008100096E02081253009F448C035968E179F0751
:10082000C1F796CF8091BF05873B09F491CF83E054
:10083000DF91CF9108958091BF05873B09F488CF60
:1008400084E0F6CF86E0273B09F482CFF1CF809198
:10085000BF05873B09F47CCF80918B068093DE0631
:100860008091D2068093DF068091D3068093E006C4
:10087000809166068093A9088091E1068093AA087A
:1008800087E0D6CF8091BF05873B09F461CFE09127
:100890009B0880919A08E81BFF0BEB55F74F81E00E
:1008A0009081913009F054CFC3CF82E0C1CF85E071
:1008B000BFCFEEEBF5E0ADEEB2E060E070E080E0DF
:1008C0000E94E0049D01AF0160E00E94780482175D
:1008D000930751F4D901FA0160E00E9472038193F9
:1008E0001197D9F761E0F1CF0E947D04862F08951A
:1008F0000E947203982F0C9472030DB407FEFDCF73
:100900008EB5599A08952DEE32E0EEEBF5E0A0E0B9
:10091000B0E0BD0180E00E94E0040E94CF04BD0170
:100920001296A20FB31F8217930799F38F5F9F4F01
:1009300021F4AF5FBF40DB0178F00E94BA0740E0CE
:1009400050916B0560916C0580E20E94D404599A25
:100950000E94A106A0E0B0E07CEF0E94BA074A2FF7
:1009600050916B055B0F60916C05611D82E00E94E8
:10097000D404832F71FD822F70FD81910E94EC04BD
:10098000759518F42150304019F01196AA2389F773
:10099000599A0E94A10621153105F9F608950E9481
:1009A0007203982F0C947D0459980E94EC04862FB2
:1009B0000E94EC04852F0E94EC04842F0C94EC041C
:1009C000462F50916B05570F60916C05681F83E0AF
:1009D0000E94D4041EBC08958EBD00008EB50DB4D7
:1009E00007FEFCCF0895FC0180916A05882311F170
:1009F0003FB7F89482E08093E9002091F200822FC3
:100A000090E01816190614F481E090E0882339F07C
:100A1000289844E6409369054091F10040832223E1
:100A200039F02091F200211103C02BE62093E80059
:100A30003FBF08958FEF9FEF08952FB7F89483E09D
:100A40008093E9009091E800892F807295FF04C09F
:100A50009091F20080E4891B2FBF08958091610579
:100A600081110DC082E080935D0584E080935E0576
:100A70001092600510925F0581E0809361058DE51D
:100A800095E00895CF93DF931F92CDB7DEB76983CA
:100A9000DC01ED91FC910280F381E02D41E050E01A
:100AA000BE016F5F7F4F09950F90DF91CF91089541
:100AB00083E08093E9008091F200882319F08AE3B3
:100AC0008093E80008950E941D0590E00895CF935B
:100AD000DF931F92CDB7DEB7FC018485958597FD26
:100AE00008C02FEF3FEF358724870F90DF91CF911C
:100AF0000895CE0101960E94F304019719F48981AB
:100B000090E0F3CF8FEF9FEFF0CF0F931F93CF9332
:100B1000DF931F92CDB7DEB78C01FC0184859585EC
:100B200097FF0BC0CE0101960E94F304019771F468
:100B3000898190E0F80195878487F80184859585FF
:100B40000F90DF91CF911F910F9108958FEF9FEF3D
:100B5000F1CFFC018485958597FD0BC09FB7F89474
:100B600082E08093E9008091F2009FBF90E00196BF
:100B700008959FB7F89482E08093E9008091F20095
:100B80009FBF90E0089540915705509158052091DE
:100B900055053091560542175307B4F49091E8007B
:100BA0009570E1F39091E80092FD19C08093F100F7
:100BB000809157059091580501968F739927892B3D
:100BC00019F48EEF8093E8008091570590915805B5
:100BD0000196909358058093570581E0089580E031
:100BE0000895EF92FF920F931F93CF93DF93F82E08
:100BF000192FE62E042F81E0860F880F0E94C3056F
:100C000083E00E94C305CF2DD12FEC0EFD2EF11CE9
:100C1000CE15DF05B9F007FF13C0FE0184910E94D5
:100C2000C305182F80E00E94C305812321968111FE
:100C3000EFCFDF91CF911F910F91FF90EF9008952B
:100C40008881EDCF81E0F5CFDF92EF92FF920F9395
:100C50001F93CF93DF93D82E8A01EB017B01E40E23
:100C6000F51ECE15DF0559F0D7FE12C0FE018491A6
:100C70000E94C30521968111F4CF0FEF1FEFC80129
:100C8000DF91CF911F910F91FF90EF90DF9008952A
:100C90008881EECF0F931F93CF93DF931F92CDB731
:100CA000DEB782E0898342E450E06CE572E080E8E0
:100CB0000E9424060E942E05DC0112960D911C91C3
:100CC0000115110589F0D801ED91FC910280F381A5
:100CD000E02DBE016F5F7F4FC801099597FD04C0ED
:100CE000F80100851185ECCF89810F90DF91CF91BC
:100CF0001F910F910895615030F02091F100FC0197
:100D000020830196F8CF289884E68093690508959A
:100D100090915001982329F490914F01982381E0FC
:100D200009F480E0089580914F01809350018FB1C4
:100D30008095807F669B88601C9B846080934F01B8
:100D40000895599885E00E94EC0480E00E94EC042C
:100D500080FDFBCF599A089590E0409F09F4142E2E
:100D60005527090E151E600D711D851F11240C9449
:100D7000C7060F9303E020E00E94AC060E947804AF
:100D8000782F0E947D04682F892F0F910895462F98
:100D900050915101570F60915201681F83E00E94EA
:100DA000D4041EBC08959F92AF92BF92CF92DF925F
:100DB000EF92FF920F931F93CF93DF93E2EEF6E053
:100DC00091E080818F3808F07FC08D3748F48C30F7
:100DD00008F483C08E3020F08456843008F07DC043
:100DE000359648E0EB38F40761F740916606CEEBA4
:100DF000D5E09E018FE0F9019BE0438391503F963F
:100E00009111FBCF81502F5F3F4F8111F4CF809123
:100E1000D306833008F063C010928F088091D20609
:100E2000873008F06CC010928E0840918B0861EEFC
:100E300075E88AE00E94B90690918F0820918C088D
:100E4000929F90011124C0908E08D12CE12C56E382
:100E5000C50ED11CE11CC20ED31EE11C37FDEA9465
:100E6000C60ED71EE81E80918D08292F30E0265F20
:100E70003F4F682F6150770BF82EF91A2617370766
:100E800014F49BE0F92E912C8FE0A82EB12C8E014A
:100E9000015F1F4F9F1409F442C08E2DB6010E94BE
:100EA000C706FE01339695010E947203819321507B
:100EB0003040D1F70E947D0480918C08C80ED11C6F
:100EC000E11C9394E801E3CF833B38F0833C08F4C2
:100ED00087CF825D833008F483CF938381CF909155
:100EE0008D08692F6350770B8617170624F48350FB
:100EF00080938F0893CF975090938F088FCF9091C6
:100F00008C08492F4750550B8417150624F09F5025
:100F100090938E088ACF875080938E0886CFDF917A
:100F2000CF911F910F91FF90EF90DF90CF90BF90E6
:100F3000AF909F90089596E0899FF0011124E959A0
:100F4000F94F808180938B0881818093E1068281B3
:100F500080936606858180938B0683818093D20679
:100F600084818093D3060C94D30659980E94EC0494
:100F7000599A089586E00C94B507FC010E94580820
:100F8000319728F068517C4F8F4F9F4FF9CFAB01BD
:100F9000FC010E945808641775078E079F07C8F365
:100FA000089585E090E00C94BD078F929F92AF92D8
:100FB000BF92CF92DF92EF92FF920F931F93CF9346
:100FC000DF936C017B018A0180910B01882309F476
:100FD0005AC080916A05882309F455C080915C0548
:100FE00080FF05C08091E00082608093E000E8010E
:100FF000B12C8AEFA82E93E0892E2AE3922E209717
:1010000011F4BB20C9F10E941D05811108C0AA94EA
:10101000AA20C9F181E090E00E94BD07F0CF8C17B3
:101020001D0611F00CF08C2F9FB7F8948092E90008
:101030002091E80025FD02C09FBFE1CF282F30E0BE
:10104000C21BD30BF701815020F041914093F10076
:10105000FACFE20EF31EBB2021F09092E800B12CF3
:10106000EBCF8091E80085FDE7CF9092E800BB24AC
:10107000B394209709F3F3CF5D9884E680935B05E2
:10108000101611063CF081E090E0F6019383828314
:1010900010E000E0C801DF91CF911F910F91FF9008
:1010A000EF90DF90CF90BF90AF909F908F9008957A
:1010B000ABE4B1E02FB7F8947D918D919C9166B52A
:1010C0002FBFA89B05C06F3F18F47F5F8F4F9F4FC6
:1010D00022E0660F771F881F991F2A95D1F7089580
:1010E000E2E3F1E08285082E880FA681A80FB78180
:1010F000B11D8D919C910394A0850A1608F00024DF
:10110000028608950F931F93CF93DF930E94700878
:10111000811520E8920771F4809171008D7F809392
:1011200071001092910046984798DF91CF911F91DE
:101130000F91089597FD05C020914301222309F4E2
:101140004DC020914401211149C021E0209342016A
:10115000EC01DF77209709F044C081E080934101E2
:1011600046980FE91FE0CAEFD0E0F0E0E0E0099513
:10117000811103C081E08093410180914201882365
:1011800021F0809141018823D9F147980E9470088D
:101190002FEF3FEFA901009751F09C01DE010E9463
:1011A0006B3224EF31E040E050E00E94493210926F
:1011B00090008AE08093910010939900009398002A
:1011C00020933D0130933E0140933F0150934001F5
:1011D00080917100826080937100A7CF10924201CC
:1011E000B7CF9E0150E040E060E472E48FE090E011
:1011F0000E94173289010150110910924101B5CFA7
:101200004699C3CF479AC2CFFC019081292F30E085
:10121000260F311D67FD3A95161634F42436310534
:101220003CF4690F6083089537FFFBCF60E0FACF8D
:1012300063E6F8CF30E73CBDDC0130E8439FC001F6
:101240001124A80FB91F5E91352F6111372F3C93E0
:10125000C89500C052235EBD0197A9F704D003D002
:1012600030E50DB43CBD089580915305882329F0E5
:1012700081508093530581E0089580E00895E091C6
:101280009808EF3FA1F04E2F50E025E0E29FF001DB
:101290001124EE51F94F908191509D3040F4249FDC
:1012A000F001259FF00D1124EB51F94F8083089533
:1012B000809198088F3F21F1482F50E035E0839FBF
:1012C000C00111248E51994FFC0120812E30C8F4A9
:1012D0002C3020F42130A0F02B30B8F425E0249FEE
:1012E000F001259FF00D1124EB51F94F10820E945F
:1012F0007802809198080E945B038EE08093BF057E
:1013000008952456243050F00895349FF001359FFD
:10131000F00D1124EB51F94F1082EFCF2091BF0552
:10132000822F8D51990BBC01349FC001359F900DC8
:10133000112482549A4FFC01E85DFE4F3081895D93
:101340009E4FFC01361717063CF32F5F2093BF0515
:101350000895809193089091940801969093940831
:10136000809393088F3F910519F48EE08093BF0519
:10137000089560E081E00E9444038F3F81F0482F90
:1013800050E025E0829FF0011124EE51F94F908149
:10139000983A31F09B3A49F081EA903A81F0089509
:1013A0000E945B038AE00C94D502249FD001259F04
:1013B000B00D1124AA51B94F8C918093C005808340
:1013C00085E0F1CFCF93C82F853021F08A30A9F086
:1013D00081E011C060E081E00E9444038F3F69F02A
:1013E0008C9FF0011124EE51F94F8081803A81F3F6
:1013F0008B3A71F380E0CF91089560E081E00E9424
:1014000044038F3FB9F395E0899FF0011124EE5119
:10141000F94F8081883A71F7DBCF909190088091E5
:101420009108911102C081500895880F880F9F5F25
:10143000890F08959091900880919108911108C0AA
:10144000815025E0829FC00111248457994F08954F
:10145000880F880F9F5F890FF4CFCF93DF93EC0144
:101460008B8190919608981788F4891B9091BF05FD
:101470008B8386E5903609F080E58093BF05109256
:10148000940810929308DF91CF910895E881ED5769
:10149000E150FF0BE354FF4FE491E09396088E2F49
:1014A00090E00E94CA011B8281E6E7CF8091D506B9
:1014B000882321F18091BF05853571F08F3551F07A
:1014C0008335D9F486E58093BF0510929408109275
:1014D0009308089580E6F7CF8091DC068093D206CA
:1014E0008091DD068093D3068091DB0680938B0686
:1014F0000E94D3068EE08093BF05089582E6FBCF5D
:101500004F925F926F927F928F929F92AF92BF9213
:10151000CF92DF92EF92FF920F931F93CF93DF93BF
:1015200000D0CDB7DEB7A3E5B1E03A01862EE02FBB
:10153000BB24482E96959695969541E0E1FC44E0B3
:10154000E0FC440FE2FC42955FEF549F6001C094C1
:10155000D094F594E794F594E794F594E7943E2DB0
:101560003F3F4CF43095931B20FD330F389F600CA8
:10157000711C8B1C3FEF17FF0BC0400E20FF02C0F9
:10158000000F111F601A710A8B0817FD8394EE2754
:1015900050E835030E0EA00DB11D5E1B451608F078
:1015A000452E57E0531B591714F4952FB39450E868
:1015B0005419682F772721FD02C06419770B20FF8B
:1015C00002C0660F771F1124A32E21114EC0F30114
:1015D000292F30308CF4A058BF4F142D8591849F53
:1015E0000C910D2101290D931A95C1F711242A950B
:1015F000A419B109E60FF71F2223C9F0ED01C05865
:10160000DF4F142D8591849F0C910C2100290D939F
:1016100008810D21012909931A95A1F71124A50F1D
:10162000B11DC50FD11DE60FF71F2A9551F7BB203D
:1016300041F08591849F0C910C2100290D934A94CF
:10164000C1F711240F900F90DF91CF911F910F914F
:10165000FF90EF90DF90CF90BF90AF909F908F90D2
:101660007F906F905F904F900895213009F04CC0AB
:10167000F301292F3030B4F4A058BF4FF42C8591DA
:101680000591849FC001049F8001EC901095E12298
:10169000E92AED92FA9499F711242A95A419B1092F
:1016A000E60FF11D2223F9F0ED01C058DF4FF42CB5
:1016B00085910591849FC001049F8001EC90009565
:1016C000E022E82AED92E8801095E122E92AE992E9
:1016D000FA9471F71124A50FB11DC50FD11DE60FA6
:1016E000F11D2A9521F7BB2069F085910591849F12
:1016F000C001049F8001EC900095E022E82AED9261
:101700004A9499F711249ECF00905101700C0090DB
:101710005201801C19C0599833E03EBD660E771EF9
:10172000811C5524841509F053940AD08EBC07D02F
:101730007EBC05D06EBC03D01EBC03D00895C895F6
:101740000000C895C8950895661A770A8108E3DFF6
:10175000A1141CF0992371F564C0A058BF4FE42C6C
:1017600020FD0CC00EB51EBC049F9C909D209128AE
:101770009D92C89500C0EA94A9F711C00EB51EBC91
:10178000049F8001DEDFCEB41EBCC49E60019C902D
:10179000D0949D20912A9D92C895EA9479F71124BE
:1017A000A419B1099A9509F45CC0552019F00DB43B
:1017B000599AB1DFFD01E058FF4FE42C20FD0EC027
:1017C0000EB51EBC049F9C909C2090289D929080FA
:1017D0009D2091289192EA9499F716C00EB51EBCEF
:1017E000049F80019C90D080AEDF00C0CEB41EBCB0
:1017F000C49E00949020902A9D921094D120D12ACA
:10180000D1920000EA9451F71124A50FB11D9A95C9
:1018100061F6BB2031F1552021F00DB4599A7BDFE0
:10182000C89520FD0CC00EB51EBC049F9C909C204A
:1018300090289D92C89500C04A94A9F712C00EB591
:101840001EBC049F80017DDF9EB51EBC949F902D21
:101850009C9090959922902A9D92C8954A9479F7E8
:10186000C8951124599A0DB4EDCE6F927F928F9244
:10187000AF92CF92DF92EF92FF920F931F93803837
:1018800091050CF037C0603471050CF033C0A42F03
:10189000B0E0FD01E80FF91F1E161F060CF02AC06C
:1018A000E22FF0E03F01660E771E161417040CF0CD
:1018B00021C03701802E7B018C019E2F8827842B2D
:1018C0009B2BC114D10489F0269526952695A0FC62
:1018D000220F249FF001EC9DD001ED9DB00DFC9DE9
:1018E000B00D6A0E7B1E1124811C2A2D682DA301C8
:1018F0000E94800A1F910F91FF90EF90DF90CF9090
:10190000AF908F907F906F9008957F928F929F926B
:10191000AF92CF92DF92EF92FF920F931F93CF93EC
:10192000DF93EC014B016901E42E842FB9010E9481
:10193000C7060E947203782E0E947D044E2D9601E8
:101940002E5F3F4F4F4F93E0A92E68017901042F7E
:10195000282F472DB401CE010E94350CDF91CF9185
:101960001F910F91FF90EF90DF90CF90AF909F90DD
:101970008F907F9008953F924F925F926F927F92E7
:101980008F929F92AF92BF92CF92DF92EF92FF928F
:101990000F931F93CF93DF93E82E52E0552E6111E2
:1019A00002C04EE0542E8091BF05823431F5809103
:1019B000930890919408009731F060E370E00E94E2
:1019C000863260FD1AC0E091910825E0E29FF001A7
:1019D0001124E750FF4F6491E0919008F0E0E65148
:1019E000FF4F84910E2D10E06250770B21E630EA14
:1019F00043E08250990B0E94850C8CE8A82E86E06B
:101A0000B82ED12CC12CF12C9CED692E90E0792EB2
:101A100023E0422E3DED832E30E0932EF5019081A0
:101A20009923F1F0F601E452FF4F6491E601C253AD
:101A3000DF4FFE0184918701F3E09F9F000D111D90
:101A400011240350110970E02FEA3BE943E090E0D4
:101A50000E94850CCC2069F121E0C21609F44CC02B
:101A6000FFEFCF1ADF0A25E0A20EB11CC514B0F2B9
:101A70008091930890919408009749F00196803FD7
:101A8000910509F44AC09093940880939308DF91DC
:101A9000CF911F910F91FF90EF90DF90CF90BF906B
:101AA000AF909F908F907F906F905F904F903F90FE
:101AB0000895F3016491FE01849170E090E0870144
:101AC00023E43DEC43E009960E94850C0E94360217
:101AD000F3016491FE01C491849D000D111D112438
:101AE00070E06E5F7F4F8C2F90E02AE23FEF44E082
:101AF00040960E94850CB4CFF4016491FE0184915C
:101B000070E090E0870123E43DEC43E009960E94F9
:101B1000850C0E944202F401DCCF109294081092CE
:101B20009308B5CF7F928F929F92AF92CF92DF9220
:101B3000EF92FF920F931F93CF93DF93EC014B0132
:101B40006901E42E842FB9010E94C7060E94720326
:101B5000782E0E947D044E2D96012E5F3F4F4F4FF1
:101B600092E0A92E68017901042F282F472DB40196
:101B7000CE010E94350CDF91CF911F910F91FF9004
:101B8000EF90DF90CF90AF909F908F907F900895CF
:101B90002F923F924F925F926F927F928F929F927D
:101BA000AF92BF92CF92DF92EF92FF920F931F936B
:101BB000CF93DF93782EE62E90918C088091D306F8
:101BC0000091D20610E0989F000D111D11246801AC
:101BD00041E0C422DD24C1E060E08C2F0E941503A7
:101BE0000FEF080F023008F0B6C0472D440F440F26
:101BF000470D41504C0F65E477E78AE00E94B90633
:101C00009B01482F10E0000F111F0C0D1D1DC80176
:101C1000880F991F080F191F0E0D111D70E060E04D
:101C200090E080E00E94920D89E0789E40011124AE
:101C3000789E702C1124D12CC12CAE2CB12C68E0D4
:101C4000662EDC2DD43091F1562C5C18D43008F47B
:101C50005C2C1FEFD43008F011E0F52C612F8F2D94
:101C60000E9415039FEF980F923008F0A2C0FC1657
:101C700008F09FC08601065D1C4F5F1084C0472D91
:101C80004D0F813009F04AC262E777E78AE00E948F
:101C9000B9069B01482FD77FF80109F082C08491D3
:101CA000850164E070E090E00E94920D4FEFC41A4D
:101CB000D40A59E0C516D10409F0C3CFC15085E05C
:101CC000482EF12C92EDA92E96E0B92E20E1322E6D
:101CD0003EE1832E33E0932E4AE1642E43E0742EDE
:101CE0005AE1252E60E08C2F0E944403582EDFEF2E
:101CF000DC0F8FEF5816C9F0252D30E0549CC00141
:101D00001124FC01EE51F94F6F0140814F3808F06A
:101D10007EC04D3708F0A1C14E3008F04FC04C30A6
:101D200008F07DC1413008F0D9C0CD2FDF3FD1F69A
:101D3000DF91CF911F910F91FF90EF90DF90CF90A7
:101D4000BF90AF909F908F907F906F905F904F90DB
:101D50003F902F900895CF5FC53009F03DCF81E0CF
:101D6000870D482F440F440F480F415065E477E733
:101D70008AE00E94B9069B01482F8601000F111FBF
:101D80000C0D1D1D49CF4D2F480D440F440F4150E0
:101D90004F0D64E178E78AE00E94B9069B01482F65
:101DA000F8018491850164E070E090E00E94850C68
:101DB0007DCFF394F5E0FF1251CF78CF44564430F5
:101DC00008F0B3CF842F880F880F480F1091BF05FC
:101DD0001F51133008F010E0C13009F4CCC00CF4EE
:101DE000A4CFC5300CF0A1CF4D0F68EB76E78AE0A9
:101DF0000E94B9069B01482F8C2FCC0F990B01979D
:101E0000FC01E25EFC4F6491865E9C4FAEC0403F99
:101E100008F045C0463E08F076C1405A433208F00B
:101E200084CFD43008F081CF440F440F4D0F64E1CC
:101E300075E78AE00E94B9069B01482F8C2F0C2E73
:101E4000000C990B0197FC01EA5EFC4F64918E5ED9
:101E50009C4FFC01849170E0870190E00E94850C0A
:101E6000C13009F062CF8091BF058E3019F080310A
:101E700009F0A6C0F6018081883A09F4C5C08B3A02
:101E800019F0803A09F051CFECE8F6E08081853016
:101E900009F455C13596AE16BF06C1F791C0483F4B
:101EA00008F40BC14F3F08F040CFD43008F03DCFCD
:101EB000485F440F440F4D0F64EE74E78AE00E94C0
:101EC000B9069B01482F8C2FCC0F990B0197FC0171
:101ED000EA50FD4F64918E509D4F47C04150842F72
:101EE000880F880F480FD43070F1429EF001439E56
:101EF000F00D1124EB51F94F8081882309F415CF9F
:101F00008091BF058B3159F4870121E431EC43E026
:101F100070E060E083E190E00E94850C06CF4C5FAA
:101F200069EA73E78AE00E94B9069B01482F87019E
:101F300070E060E083E190E00E94850C2092BF0594
:101F400050929808F2CE4D0F69EA73E78AE00E943A
:101F5000B9069B01482F8C2FCC0F990B0197FC01E0
:101F6000EA5DFC4F64918E5D9C4FFC01849170E0B2
:101F7000870190E0D1CF429EF001439EF00D1124E5
:101F8000EB51F94F80818823E9F04C5F68EB76E7ED
:101F90008AE00E94B9069B01482FC701E3E01E9F1B
:101FA000800D911D11248C0170E060E090E080E0D4
:101FB0000E94920D8091BF058F51FFE1833090F513
:101FC000CD2F90CE68EB76E78AE00E94B9069B01A0
:101FD000482FF4016491F301849170E0870190E04F
:101FE0000E94850C8091BF058E50823048F728E909
:101FF0003CEC44E063E370E08CE490E00E94850CEC
:10200000FFE0F093BF0591CEECE8F6E080818A30E6
:1020100009F488C03596AE16BF06C1F7D1CFD430CB
:1020200020F0F9E2F093BF058BCF4150842F880F49
:10203000880F480F4D0F69EA73E78AE00E94B906DE
:102040009B01482F8C2FCC0F990B0197FC01E25F6D
:10205000FC4F6491865F9C4F88CF429EF001439E67
:10206000F00D1124EB51F94F8081882309F45DCEE6
:10207000C130D9F00CF459CEC5300CF056CE4D57C6
:10208000440F440F4D0F67EC76E78AE00E94B906D3
:102090009B01482F8C2FCC0F990B0197FC01EA5F15
:1020A000FC4F64918E5F9C4F60CF8091BF058E5036
:1020B000823008F085CFFEE4A4CFD43008F035CECE
:1020C00080E1840F90918B069250923020F480FD35
:1020D00018C081E1840F482F440F440F4D0F6CE965
:1020E00074E78AE00E94B9069B01482F8C2FCC0F21
:1020F000990B0197FC01E250FD4F649186509D4F72
:1021000034CF8FE0E7CFD43008F00FCE465E440FD7
:10211000440F4D0F6CE674E78AE0D1CE63EC77E7AD
:102120008AE0B5CD87012CE832EA40E064E370E054
:1021300082E190E00E94850C3092BF05F6CD8701C8
:1021400026E23FE840E0F2CF0F931F930E9434094C
:10215000882369F00E94930688E00E9488068823FD
:1021600031F08091C005833089F48093BF050091E0
:102170006D0510E022E030E340E070E060E090E0C8
:1021800080E00E94920D1F910F9108958DE3EDCF95
:102190000F931F930E943409882351F00E949306E5
:1021A0008091BF05833009F448C0E0F4823081F1AA
:1021B0000091BF050250110BC801880F991F800FB5
:1021C000911F00916D05080F192F111D20E030E0BF
:1021D00040E070E060E090E080E00E94920D1F918E
:1021E0000F9108958430F1F1853011F780E20E945B
:1021F0008806882319F084E08093BF0588E00E9458
:1022000088068823A9F21092BE050E9483040DC09F
:1022100080E40E948806882319F083E08093BF053C
:1022200088E00E948806882319F210928B088CE0BF
:102230008093BF050E940902BBCF80E20E948806FE
:10224000882319F082E08093BF0588E00E94880609
:10225000882309F4ADCF83E08093C00588E08093A4
:10226000BF05A6CF80E40E948806882319F085E088
:102270008093BF0588E00E948806882309F498CFE0
:102280000E9459048EE0EBCF2F923F924F925F92C3
:102290006F927F928F929F92AF92BF92CF92DF9276
:1022A000EF92FF920F931F93CF93DF93C82F462E89
:1022B0009091D30680918C084091D20650E0989F6F
:1022C000400D511D112441705527440F440F80913A
:1022D0008B06480F62E879E78AE00E94B9069B0105
:1022E000482FD0E08E0170E060E084E090E00E9432
:1022F000920D7AE2E72E71E0F72EECEFBE2EF5E0BC
:10230000AF2EA9E2CA2EA1E0DA2E6B2D84E00E9446
:102310001503813059F4F70184918E0122E532E9E9
:1023200046E068E170E090E00E94850C6B2D84E04F
:102330000E9444038F3FB1F08A9DF0011124EE51B9
:10234000F94F4081493B08F01EC1403A08F061C195
:10235000483608F00DC1443608F051C142534630AA
:1023600008F438C1B394FFEFEF1AFF0A55E0B51235
:10237000CCCFF12CE12C35E0732E48E2C42E41E0A5
:10238000D42E58E2A52E53E0B52E64E2862E63E0EB
:10239000962E2DEF622E6E0C662D83E00E941503A3
:1023A000813069F4F701E15EFE4F84918E0120E9EE
:1023B00031E946E069E170E090E00E94850C662D0D
:1023C00083E00E9444038F3FB1F0879DF001112408
:1023D000EE51F94F4081493B08F033C1403A08F0D3
:1023E00097C1483308F01CC1423308F056C1415030
:1023F0004D3008F469C1FFEFEF1AFF0A57E0E51608
:10240000F10439F6F12CE12C15E0712E07E2C02E13
:1024100001E0D02E87E2A82E83E0B82E93E2892E29
:1024200093E0992EBEEF6B2E6E0C662D82E00E941B
:102430001503813069F4F701ED5EFE4F84918E0142
:102440002EE83EE846E062E170E090E00E94850CF4
:10245000662D82E00E9444038F3FB1F0879DF0011A
:102460001124EE51F94F4081493B08F069C1403ACF
:1024700008F0CDC1483308F052C1423308F08CC196
:1024800041504D3008F49FC1FFEFEF1AFF0A55E0AD
:10249000E516F10439F6F12CE12C65E0262E7EE1FB
:1024A000672E73E0772EEAE1CE2EE3E0DE2EF6E231
:1024B000AF2EF3E0BF2EA2E28A2EA3E09A2E55247F
:1024C0005A945E0C652D81E00E941503813079F4E9
:1024D000F701E55FFE4F84918E012CE832E846E07B
:1024E00064E070E0082E000C990B0E94850C652DAD
:1024F00081E00E944403382E8FEF3816C1F0232D5F
:1025000030E0329CF0011124EE51F94F4081493BFB
:1025100008F09AC1403A08F07EC2483308F07EC104
:10252000423308F0F0C141504D3008F400C25FEF73
:10253000E51AF50A83E0E816F10409F0C0CF60E07F
:1025400080E00E9444038F3F89F0482F50E025E04F
:10255000829FF0011124EE51F94F90819B3009F4D4
:1025600091C208F05FC2913008F065C28E018DC142
:102570004D57423108F0F6CE440F440F4D5F67ECE3
:1025800076E78AE02FC04F3B21F0B8F4493B09F0D1
:1025900040C0440F440F4D5764E175E78AE00E9444
:1025A000B9069B01482FF7018491F60194918E01A1
:1025B00068E170E0891B990B1FC0433C50F1465EF7
:1025C0004A3008F0CFCE440F440F4D5F6CE674E7FD
:1025D0008AE008C04110C6CE440F440F4D5F60EF43
:1025E00074E78AE00E94B9069B01482FF7018491A5
:1025F0008E0168E170E090E00E94850CB3CE4456F5
:10260000842F880F880F480F4D5F68EB76E78AE0CC
:10261000E9CF440F440F4D5764E175E78AE0E2CFFC
:10262000443608F4E8CE483608F468C04D574231C5
:1026300008F0E1CE440F440F4E5F67EC76E78AE086
:1026400034C04F3B21F0D8F4493B09F061C0440F3E
:10265000440F4E5764E175E78AE00E94B9069B017A
:10266000482FF701E15EFE4F8491F60194918E01AF
:1026700069E170E0891B990B0E94920DBCCE433C2E
:1026800008F446C0465E4A3008F0B5CE440F440F09
:102690004E5F6CE674E78AE008C04110ACCE440F90
:1026A000440F465C60EF74E78AE00E94B9069B0124
:1026B000482FF701E15EFE4F84918E0169E170E0E1
:1026C00090E00E94850C97CE842F880F880F480FCA
:1026D0004E5F69EA73E78AE00E94B9069B01482FC2
:1026E000F5016491F4018491F701E85EFE4FE491F5
:1026F00070E08E018E0F9927991FE3CF4456842FE7
:10270000880F880F480F4E5F68EB76E78AE0CDCFE1
:10271000440F440F4E5764E175E78AE0C6CF443654
:1027200008F4B2CE483608F468C04D57423108F07C
:10273000ABCE440F440F4F5F67EC76E78AE034C0BE
:102740004F3B21F0D8F4493B09F061C0440F440FDE
:102750004F5764E175E78AE00E94B9069B01482F54
:10276000F701ED5EFE4F8491F60194918E0162E1D6
:1027700070E0891B990B0E94920D86CE433C08F4B1
:1027800046C0465E4A3008F07FCE440F440F4F5F8C
:102790006CE674E78AE008C0411076CE440F440F1F
:1027A000475C60EF74E78AE00E94B9069B01482FFE
:1027B000F701ED5EFE4F84918E0162E170E090E0E2
:1027C0000E94850C61CE842F880F880F480F4F5FC1
:1027D00069EA73E78AE00E94B9069B01482FF50178
:1027E0006491F4018491F701E25FFE4FE49170E09F
:1027F0008E018E0F9927991FE3CF4456842F880F9F
:10280000880F480F4F5F68EB76E78AE0CDCF440F23
:10281000440F4F5764E175E78AE0C6CF443608F4A9
:1028200086CE483608F49EC04D57423108F07FCE20
:102830008091BF058E50823008F079CE511077CE4E
:102840009EE49093BF0573CE4F3B29F008F042C041
:10285000493B09F0E0C0405A440F440F64E175E77A
:102860008AE00E94B9069B01482FE52D550CFF0B0D
:10287000E45FFE4F8491E6E2F1E0E4918E0164E0D2
:1028800070E08E1B990B0E94920D28EA3DE746E00E
:1028900070E060E090E080E00E94850C2AEE3FE767
:1028A00046E070E060E084E690E00E94920DDF91E7
:1028B000CF911F910F91FF90EF90DF90CF90BF903D
:1028C000AF909F908F907F906F905F904F903F90D0
:1028D0002F900895433C08F49EC0465E4A3008F0AD
:1028E00026CE440F440F6CE674E78AE00E94B906D6
:1028F0009B01482FF701E55FFE4F84918E0170E048
:1029000060E090E02CC0411012CE4253440F440FBF
:1029100060EF74E78AE00E94B9069B01482FF70137
:10292000E55FFE4F84918E0164E070E0EACF842F72
:10293000880F880F480F69EA73E78AE00E94B9069A
:102940009B01482FF5016491F4018491F701E85F40
:10295000FE4FE49170E08E018E0F9927991F0E941F
:10296000850CE5CD4456842F880F880F480F1091B1
:10297000BF051F51133008F010E0229EF001239E86
:10298000F00D1124EB51F94F8081882309F14C5F40
:1029900068EB76E78AE00E94B9069B01482FCE01DA
:1029A000E3E01E9F800D911D11248C0170E060E01A
:1029B00090E080E00E94920D8091BF058F5183309E
:1029C00008F4B5CDFFE1F093BF0530929808AFCD84
:1029D00068EB76E78AE00E94B9069B01482FF30175
:1029E0006491F601849170E08E0190E00E94850C64
:1029F0008091BF058E50823008F099CD28E93CECDB
:102A000044E063E370E08CE490E00E94850CFFE01A
:102A1000F093BF058CCD405A440F440F64E175E735
:102A20008AE079CF9E3008F0A1CD99E29093BF055E
:102A3000809398089BCD249FD001259FB00D112431
:102A4000AB51B94F9C91992309F490CD9AE19093A1
:102A5000BF058093980840818FEF840F482F440F63
:102A6000440F480F4C5F69EA73E78AE00E94B90699
:102A70009B01482F8E0170E060E085E190E00E94AC
:102A8000850C74CD249FD001259FB00D1124AB512E
:102A9000B94F9C91992309F469CD9AE19093BF05B0
:102AA0008093980840818FEF840F482F440F440F84
:102AB000480F4C5F69EA73E78AE00E94B9069B0100
:102AC000482F00918B06802F90E08C01000F111F82
:102AD000080F191F0C0F1D1FCECF0F931F93082F28
:102AE0008091E1069091BF05945B933000F58330AF
:102AF000B0F08330C1F04091BF05445B60EA73E7FA
:102B00008AE00E94B9069B01482F10E070E060E067
:102B100084E190E00E94920D1F910F910895602F23
:102B20000E94C80DE8CF802F0E944411E4CF83306B
:102B300038F0833089F7802F1F910F910C94441146
:102B4000602F1F910F910C94C80DDF92EF92FF92AE
:102B50000F931F93CF93DF93D62EE42EF22EC82F20
:102B6000D0E000918B0610E080918C06882309F458
:102B700057C0C801880F991F080F191F0C0F1D1F80
:102B80002FE638EB44E070E060E086E690E00E94DB
:102B9000920DD11011C08091D5068E0193E0899FCE
:102BA000000D111D112420EC3EEE44E06CE070E0BD
:102BB00085E790E00E94850CE11014C01091D906C1
:102BC0000E944202810F8E0193E0899F000D111D2A
:102BD000112420EC3EEE44E066E170E085E790E0F1
:102BE0000E94850CF11014C01091D8060E94360284
:102BF000810F8E0193E0899F000D111D112420EC9F
:102C00003EEE44E060E270E085E790E00E94850CD3
:102C1000DF91CF911F910F91FF90EF90DF9008957A
:102C20000C5F1F4FA6CFAF92BF92CF92DF92EF9271
:102C3000FF920F931F93CF93DF930E943409882351
:102C400009F46AC00E94930688E00E9488068823DF
:102C500009F44AC08091BF05843131F0853121F1FA
:102C60008EE08093BF0540C086E18093BF0510923F
:102C70009408109293086091960888ED96E00E945F
:102C80000409E091D406E150FF0BE252FD4F84911C
:102C900090E09195819591090E94CA0162E08AEDC8
:102CA00096E00E94040920C0809191068111C2C063
:102CB00087E18093BF051092940810929308E091E9
:102CC000D406E150FF0BE252FD4F849190E09195C4
:102CD000819591090E94CA0162E08AED96E00E9406
:102CE00004098AE00E944E0280E20E94880688233E
:102CF00039F08091BF05853119F484E18093BF05D7
:102D000080E40E948806882339F08091BF058431D1
:102D100019F485E18093BF05A0906D05B0909106F0
:102D20008091BF05863109F493C0873109F497C0BB
:102D3000F12CD0E0C0E0853109F49AC080E0B110F8
:102D400001C08E5FCA2CD12C93E0E92E86018E9DA6
:102D5000000D111D112428E23FE440E070E060E026
:102D600090E080E00E94920D8091D40686018E9DB5
:102D7000000D111D11242AE23FEF44E065E170E0EF
:102D80008EE390E00E94850C8091960886018E9DCE
:102D9000000D111D11242AE23FEF44E069E270E0CA
:102DA00087E390E00E94850CBB2081F0809197081A
:102DB00086018E9D000D111D11242AE23FEF44E093
:102DC00069E270E085E590E00E94850CFF2039F013
:102DD000FF24F39480919508803308F0F12CDD23D3
:102DE00031F0D1E080919508803308F0D0E0CC2319
:102DF00031F0C1E080919508803308F0C0E02F2DBC
:102E00004D2F6C2F8A2D0E94A5158091950890E07A
:102E1000019660E670E00E949A3280939508DF91F7
:102E2000CF911F910F91FF90EF90DF90CF90BF90C7
:102E3000AF90089587E18093BF0510929408109297
:102E400093086091970889ED96E00E94040919CFD4
:102E50000E94A909FF24F394D0E0C0E06FCFD0E036
:102E6000C1E0BB2011F0D1E0C0E00E94A909F12C23
:102E700081E065CFCF92DF92EF92FF920F931F9385
:102E8000CF93DF930E943409882351F00E94930668
:102E900084E00E948806882319F089E38093BF05A7
:102EA000F0906D05CF2DD0E08E012AE635E740E0A9
:102EB00070E060E090E080E00E94920D20E040E051
:102EC00060E08F2D0E94A5158091D40693E0F92E25
:102ED0008F9D000D111D112420EC3EEE44E061E1B8
:102EE00070E083E490E00E94850C8091D60690917A
:102EF000D70624E6C22ED12CB6010E9486328B0161
:102F0000000F111F060F171F0C0F1D1F26EB33EEAE
:102F100044E069E170E082E290E00E94850C8091DB
:102F2000D6069091D706B6010E9486328C01000F1A
:102F3000111F080F191F0C0F1D1F20EC3EEE44E05F
:102F400069E170E086E290E00E94850CE091D40691
:102F5000E150FF0BE252FD4F849154E6E52E6E2DB9
:102F60000E947A328E018F9D000D111D112426EBD7
:102F700033EE44E069E170E083E490E00E94850C68
:102F8000E091D406E150FF0BE252FD4F84916E2D8B
:102F90000E947A328E019F9D000D111D112420EC9C
:102FA0003EEE44E069E170E087E490E00E94850C29
:102FB0008091D5068E018F9D000D111D112420ECEE
:102FC0003EEE44E061E270E082E290E00E94850C17
:102FD0008091DA068E018F9D000D111D112420ECC9
:102FE0003EEE44E061E270E083E490E00E94850CF4
:102FF0008091D8068E018F9D000D111D112420ECAB
:103000003EEE44E069E270E082E290E00E94850CCE
:103010000E9436028E018F9D000D111D112426EB9A
:1030200033EE44E069E270E080E390E00E94850CBA
:103030008091D9068E018F9D000D111D112420EC69
:103040003EEE44E069E270E083E490E00E94850C8B
:103050000E9442028E018F9D000D111D112426EB4E
:1030600033EE44E069E270E081E590E00E94850C77
:10307000DF91CF911F910F91FF90EF90DF90CF9054
:1030800008950F931F930E943409882369F00E94CA
:10309000930688E00E948806882331F01092BF05CD
:1030A0001092BE050E94830400916D0520E040E06F
:1030B00060E0802F0E94A51510E028E03AE64AE083
:1030C00070E060E090E080E00E94920D1F910F910F
:1030D0000895FF920F931F93CF93DF93082F809152
:1030E000BF05843249F010F08932B8F0DF91CF91FA
:1030F0001F910F91FF90089540919B086AE979E72D
:103100008AE00E94B9069B01482F10E070E060E061
:1031100090E080E00E94920DE9CF40919B0866EA22
:1031200079E78AE00E94B9069B01482FE0919B084D
:1031300080919A08FE2EF81AC02FD0E08091BF052A
:1031400085528E0193E0899F000D111D112470E0BE
:1031500060E090E080E00E94920DEF2DF0E0EB55F2
:10316000F74F8081823011F600919C08802F90E00B
:103170008C01000F111F080F191F0C0F1D1F22E6D5
:103180003BE34AE061E270E080E390E00E94850C5E
:10319000ADCFAF92CF92DF92EF92FF920F93690182
:1031A000FA01459125917F01FF0F000BA12C0E9490
:1031B000350C0F91FF90EF90DF90CF90AF90089576
:1031C0005C98FC012591CF012EBD00000DB407FED7
:1031D000FDCF6150B1F75C9A08950F931F93CF9381
:1031E0000E943409882309F452C00E94930684E0A7
:1031F0000E948806882319F08DE28093BF0588E03D
:103200000E948806882361F00E941A0AFC018081CE
:10321000853009F456C08A3009F453C0811159C071
:1032200080E40E948806882359F010929408109236
:10323000930880919008843018F48F5F80939008F1
:1032400080E20E948806882331F010929408109240
:1032500093080E94E30180E10E948806882359F0C8
:10326000109294081092930880919108823018F47B
:103270008F5F8093910880E80E948806882339F048
:1032800010929408109293088FEF0E94F601C0915B
:103290006D050C2F10E029E732E343E070E060E0B9
:1032A00090E080E00E94920D60E08C2F0E94BB0CA9
:1032B00020E040E060E08C2FCF911F910F910C94A3
:1032C000A5150E94E209882369F083E48093BF0575
:1032D000A7CF809190088111F8CF81E00E9466020B
:1032E0008E3099F786E4F2CFCF93DF9380E20E948D
:1032F0008806882341F080918B0690E003968370C6
:10330000992780938B0680E40E948806882341F0E9
:1033100080918B0690E001968370992780938B06AD
:1033200080E10E9488068823A1F080918B0681307D
:1033300009F466C090F1823009F47AC0833009F450
:103340008DC0D73009F4AAC008F09EC0D33008F46D
:103350003CC080E80E948806882309F45CC1809103
:103360008B06813009F4B4C008F49AC0823009F4A5
:10337000CAC0833009F4DDC0C350C73008F04BC168
:10338000EC2FF0E0EA53F64E0C94AE32AF1AD31A9B
:10339000E81AE61AF31AF51A0E1B61E080E00E94A3
:1033A0007803D82F813069F68091D2068093DC06AD
:1033B0008091D3068093DD0690918B069093DB0677
:1033C0008F5F8093D3060E94D30660E08FEF0E9448
:1033D00044038F3F09F4BDCF25E0829FF001112403
:1033E000EE51F94F80818D57823108F0B2CF809134
:1033F0008B0690E006968370992780938B06A9CF61
:1034000060E08FEF0E947803D82F813009F099CFC8
:103410008091D2068093DC069091D3069093DD06CE
:1034200090918B069093DB0681508093D206CBCF90
:103430006FEF80E00E947803D82F813009F081CFB0
:103440008091D2068093DC068091D3068093DD06BE
:1034500090918B069093DB068150B3CF60E081E0C2
:103460000E947803D82F813009F06BCF8091D2066B
:103470008093DC069091D3069093DD0690918B06A5
:103480009093DB068F5FD1CFD83009F462CF88EB01
:10349000D93009F09ACF8093BF055BCF84E2FBCF90
:1034A0006FEF80E00E947803C82F813009F064CF6D
:1034B0008091D2068093DC068091D3068093DD064E
:1034C00090918B069093DB0681508093D30617C0B2
:1034D00060E081E00E947803C82F813009F04CCF72
:1034E0008091D2068093DC069091D3069093DD06FE
:1034F00090918B069093DB068F5F8093D206DF91CD
:10350000CF910C94D30661E080E00E947803C82F2D
:10351000813009F031CF8091D2068093DC06809112
:10352000D3068093DD0690918B069093DB068F5F28
:10353000CCCF60E08FEF0E947803C82F813009F074
:103540001BCF8091D2068093DC069091D306909396
:10355000DD0690918B069093DB068150CECF60E024
:1035600081E00E9444038F3FD1F095E0899F900154
:103570001124F901EE51F94FE081E456FF0BE652B8
:10358000FD4FE49122543A4FD901A85DBE4FEC9310
:10359000295D3E4F91E0F9019083809398088FE177
:1035A0008093BF0538C060E081E00E9444038F3FF4
:1035B00091F125E0829FF0011124EB51F94F8081B8
:1035C0008F3F49F1DF91CF910C949B078AE2E8CFBE
:1035D00060E081E00E9444038F3FE9F095E0899F1D
:1035E000F0011124EACF84E2DBCF60E081E00E94A9
:1035F00044038F3F81F0E5E08E9FC0011124FC0160
:10360000EA51F94F20812093C0052093BF058E51C8
:10361000994FFC012083DF91CF91089588EBC0CFB3
:10362000CF930E943409882309F450C00E94930666
:1036300088E00E948806882301F18091BF058F30C1
:1036400009F45DC08031C9F460E081E00E94440368
:103650008F3F99F095E0899FF0011124EE51F94FC9
:103660008081883A29F08B3A09F444C0803A29F4E1
:103670000E94B9098EE08093BF0584E00E9488060D
:10368000882359F08091BF0592EF980F933028F46A
:103690008093C0058DE28093BF058091BF05845B58
:1036A000833008F069C080E80E948806882371F0A2
:1036B00060E081E00E9444038F3F41F080918B08DD
:1036C0008F5F80938B088CE08093BF05C0916D0560
:1036D0008091BF05813108F052C08F3008F053C08F
:1036E0008E3009F455C020E040E060E08C2FCF918F
:1036F0000C94A5150E94B9098091C005BCCF81E04A
:103700000E9466028E3029F481E00E943F098BE11D
:10371000B2CF60E081E00E9444038F3F09F4ADCF57
:10372000482F50E025E0829FF0011124EE51F94F1F
:10373000E081E13008F4A1CFEE30D8F08CE98E0FB3
:10374000843008F09ACFE456FF0BE652FD4FE49127
:10375000249FC001259F900D112482549A4FDC01B3
:10376000A85DBE4FEC93895D9E4F21E0FC01208354
:1037700084CF0E94580981CF0E947419A7CF845B1F
:10378000833008F0B0CF60E08C2F0E946D15ABCF76
:1037900060E08C2F0E946D15E091D406E150FF0B84
:1037A000E252FD4FE4918091D6069091D706E8173A
:1037B000190611F008F097CF82E18093BF0593CFEF
:1037C0008F929F92AF92BF92CF92DF92EF92FF9231
:1037D000E82EF090D8060E9436028F0D6E2D0E94C2
:1037E0007A32853608F083E6C82ED12C8FEFC81ABE
:1037F000D80A46010D2C000CAA08BB08D594C79422
:103800000D2C000CEE08FF08C814D904EA04FB04D0
:103810008CF48C189D08AE08BF0841F00E94BF319F
:10382000A50194010E9417324B015C01C80CD91C00
:10383000EA1CFB1C8C2DFF90EF90DF90CF90BF9087
:10384000AF909F908F9008958F929F92AF92BF926A
:10385000CF92DF92EF92FF928150990B84559F4F48
:10386000FC018491082E000C990B70E00E949A32A2
:103870006B01FFEFCF1ADF0A46010D2C000CAA08DE
:10388000BB08D7FE03C08FEFC81AD80AD594C794D7
:103890000D2C000CEE08FF08C814D904EA04FB0440
:1038A0008CF48C189D08AE08BF0841F00E94BF310F
:1038B000A50194010E9417324B015C01C80CD91C70
:1038C000EA1CFB1CB090D9060E9442029C2D981B5A
:1038D000892F8B19181664F485360CF083E6FF9057
:1038E000EF90DF90CF90BF90AF909F908F90089512
:1038F00081E0F5CF6F927F928F929F92AF92BF92AD
:10390000CF92DF92EF92FF920F931F93CF93DF93AB
:103910000E943409882309F42CC00E949306C091A8
:10392000BF05E0EBEC0FE33120F5F0E0E656F34E97
:103930000C94AE32AD1C591DB91C611DB91C611D22
:103940006A1D6A1D6A1D6A1DB91CB91CCB1DB91CF4
:10395000E21D611DCB1DEF1D021E88E00E9488063E
:10396000882339F082E58093BF0510929408109265
:10397000930860E081E00E9444038F3F09F4F6C29F
:10398000C0916D05A82EB12C55E0952E899DC001E2
:103990001124FC01EE51F94F6F01D081DD57809168
:1039A000BF05823609F466C060E08C2F0E946D1559
:1039B000EC2EF12C870129E135EA42E06CEF7FEF34
:1039C00083E290E00E94920D2BE036EA42E067E34A
:1039D00070E08EE090E00E94850C9A9CF0019B9C28
:1039E000F00D1124EB51F94F80818823D9F04D2F30
:1039F000440F440F67EC76E78AE00E94B9063B016A
:103A0000882E4D2F50E0FA01EF52FD4F849148531C
:103A10005D4FFA014491642F70E0482D930190E0CE
:103A20000E94850C85E08A9D90018B9D300D1124AC
:103A300022543A4FF901E95DFE4F8081FCE08F9FEF
:103A4000C0011124285D3E4FF901608170E00E94A1
:103A50009A3277278B01000F111F060F171F0E0DCB
:103A60001F1D2EED37E542E064E070E081E390E059
:103A70000E94920D2091BF05E0EBE20FE33108F0C8
:103A800075C2F0E0EA5BF24E0C94AE32251E661E63
:103A9000951EAA1E951EAA1E4D1F4D1F4D1F4D1F80
:103AA0004D1FD51FE81FE020EE202D21CB217E22C7
:103AB000EF2288E00E948806882309F45ACF84E523
:103AC00052CF88E00E948806882309F452CF0E94D2
:103AD000560A4FCF84E00E948806882329F0C093BD
:103AE000C0058DE28093BF0588E00E948806882388
:103AF00019F18091BF05863549F4C091D8060E941E
:103B000036028C0F19F08BE58093BF058091BF05BD
:103B1000873539F480919106882319F08DE58093DB
:103B2000BF058091BF05893539F481E58093BF05D4
:103B3000109294081092930880E80E9488068823C7
:103B400039F08091BF058735E1F010F08A35A8F093
:103B500080E10E948806882309F40BCF8091BF057D
:103B6000863589F008F405CF893508F002CF89E55C
:103B70000FC087E58093BF05EBCF8091910681113F
:103B8000F8CF86E5F7CF80919106882381F387E50A
:103B90008093BF05EECE88E00E948806C82F60E0C3
:103BA00081E00E944403CC2309F4E3CE8F3F09F463
:103BB000DDC125E0829FC00111248E51994F0E94E2
:103BC0002D0AD7CE88E00E948806882309F4D1CE3A
:103BD0008091970881950E944E028FE5C4CE88E0BF
:103BE0000E948806882309F4C4CE8EE08093BF0526
:103BF00060E081E00E9444038F3F09F4B7C10E9456
:103C00005B03B7CE88E00E948806882349F0809144
:103C1000BE05882371F00E9459048EE08093BF0591
:103C200084E00E948806882309F4A3CE1092BF0581
:103C3000A0CE10928B080E9409028CE08093BF05F1
:103C40001092BE050E948304EBCF8091930890915F
:103C500094080C2F10E026E037E642E0803891050A
:103C600060F4F60180818E57880FF3E08F9F000D7E
:103C7000111D112424EB39E542E068E370E083E193
:103C800090E00E94920D8091930890919408019683
:103C900090939408809393088F3F910519F482E5DF
:103CA0008093BF0520E040E060E08C2FDF91CF9152
:103CB0001F910F91FF90EF90DF90CF90BF90AF904A
:103CC0009F908F907F906F900C94A5150C2F10E013
:103CD00080919308909194088038910500F5F60141
:103CE0008081880F8B5FF3E08F9F000D111D1124E1
:103CF00024EB39E542E068E370E083E190E00E9464
:103D0000920D809193089091940801969093940855
:103D1000809393088F3F910529F684E5C1CF065D16
:103D20001F4F26E037E642E0E6CF61E08D2F0E948C
:103D3000241C8093960881950E944E0220E040E06A
:103D400060E08C2F0E94A5158091BF058F5F809346
:103D5000BF0539C1EC2EF12C8091960887018A307D
:103D60000CF067C00D5F1F4F26E037E642E068E3C6
:103D700070E083E190E00E94920D870123E833E731
:103D800042E06EE070E088E090E00E94850C809157
:103D90009608D3E08D9F000D111D112426EB33EE04
:103DA00044E06DE170E08DE190E00E94850C80912F
:103DB000960887018D9F000D111D112420E033EE20
:103DC00044E069E370E085E390E00E94850C61E0E7
:103DD00080919508803308F060E020E040E08C2F6F
:103DE0000E94A5158091950890E0019660E670E02C
:103DF0000E949A328093950880919308909194083C
:103E0000019690939408809393088115924009F04D
:103E1000ADC0DF91CF911F910F91FF90EF90DF9098
:103E2000CF90BF90AF909F908F907F906F900C94A9
:103E3000560A0A5F1F4F26E037E642E068E370E06B
:103E400083E190E00E94920D870123E833E742E08E
:103E50006EE070E088E090E00E94850C809196080A
:103E6000D3E08D9F000D111D112420EC3EEE44E0A7
:103E70006DE170E08BE190E00E94850C80919608E6
:103E800087018D9F000D111D11242AE23FEF44E0B0
:103E900069E370E084E390E098CFC0908C06D09006
:103EA0009106DAEAD20F8091930890919408EC2E53
:103EB000F12C0D2F10E08038910508F066C00196B6
:103EC000909394088093930887010B5E1F4F26E020
:103ED00037E642E068E370E083E190E00E94920DF3
:103EE00041E0C11001C045E063E377E78AE00E944A
:103EF000B90687019B01482F66E070E08BE590E0F2
:103F00000E94850C42E0D11001C040E063E377E7F6
:103F10008AE00E94B90687019B01482F64E170E0A6
:103F20008BE590E00E94850C40E063E377E78AE050
:103F30000E94B9069B01482F62E270E08BE590E099
:103F40000E94850C20E040E060E08C2F0E94A515C7
:103F500033E0D39F000D111D112422EA3DEC44E013
:103F600070E060E084E590E00E94850CDF91CF91E5
:103F70001F910F91FF90EF90DF90CF90BF90AF9087
:103F80009F908F907F906F900895293521F487013D
:103F9000085E1F4F9CCFC80109968C01000F111FAE
:103FA000080F191F0E0D1F1D92CF81E00E94E01B0C
:103FB000809396088CE58093BF0520E040E060E0A8
:103FC0008C2F0E94A5151092940810929308CECFC2
:103FD00020919608EC2EF12C80918C06882309F410
:103FE00091C087012A3008F059C0075F1F4F26E0B3
:103FF00037E642E068E370E083E190E00E94920DD2
:10400000870125E338E742E067E070E08EE290E068
:104010000E94850C80919608D3E08D9F000D111DA4
:10402000112426EB33EE44E06BE270E087E390E08E
:104030000E94850C8091960887018D9F000D111DAF
:10404000112420E033EE44E069E370E085E390E082
:104050000E94850C20E040E060E08C2F0E94A515B6
:10406000809193089091940801969093940880937E
:1040700093088115924009F079CFC601DF91CF9165
:104080001F910F91FF90EF90DF90CF90BF90AF9076
:104090009F908F907F906F900C942D0A045F1F4F1C
:1040A00026E037E642E068E370E083E190E00E94BA
:1040B000920D870125E338E742E067E070E08EE289
:1040C00090E00E94850C80919608D3E08D9F000DB2
:1040D000111D112420EC3EEE44E06BE270E085E31C
:1040E00090E00E94850C8091960887018D9F000DBD
:1040F000111D11242AE23FEF44E069E370E084E3FC
:1041000090E0A6CF809193089091940860E0803968
:10411000910528F460E370E00E9486326170D3E07C
:1041200057016D9FA00CB11C112487012A3020F586
:10413000075F1F4F26E037E642E068E370E083E167
:1041400090E00E94920D85012BE13FE742E067E19C
:1041500070E080E190E00E94850C809196088701D4
:104160008D9F000D111D112426EB33EE44E06BE210
:1041700070E086E390E05CCF045F1F4F26E037E6F7
:1041800042E068E370E083E190E00E94920D8501D7
:104190002BE13FE742E067E170E080E190E00E94C0
:1041A000850C8091960887018D9F000D111D1124AB
:1041B00020EC3EEE44E06BE270E084E390E091CFCF
:1041C00082E00E94E01B182F62E08D2F0E94241CC9
:1041D00010939608809397088EE562CDD091910652
:1041E000D350EC2EF12C8701025E1F4F26E037E6FC
:1041F00042E068E370E083E190E00E94920D870165
:1042000083E0D89F000D111D112423EF37EA42E00F
:1042100068E170E080E190E00E94850C61E08091AF
:104220009508803308F060E020E040E08C2F0E9489
:10423000A515809193089091940801969093940805
:10424000809393088115914009F090CE8091970852
:1042500081950E944E028FE57ACDEC2EF12C809153
:1042600096088A3008F062C0D091910687010D5FF0
:104270001F4F26E037E642E068E370E083E190E01C
:104280000E94920D8DEF8D0FD3E087018D9F000D61
:10429000111D112425E930EB42E064E070E080E17B
:1042A00090E00E94850C8091970887018D9F000DFA
:1042B000111D112426EB33EE44E060E170E085E24D
:1042C00090E00E94850C8091970887018D9F000DDA
:1042D000111D112420E033EE44E069E370E085E332
:1042E00090E00E94850C61E080919508803308F091
:1042F00060E020E040E08C2F0E94A5158091950899
:1043000090E0019660E670E00E949A3280939508F2
:1043100080919308909194080196909394088093CB
:1043200093088115914009F021CE73CD87010A5F72
:104330001F4F26E037E642E068E370E083E190E05B
:104340000E94920D870125E930EB42E064E070E0C5
:1043500080E190E00E94850C80919708D3E08D9FCA
:10436000000D111D112420EC3EEE44E060E170E0F0
:1043700083E290E00E94850C8091970887018D9FD1
:10438000000D111D11242AE23FEF44E069E370E0C3
:1043900084E390E0A6CF8091910690918C069923BA
:1043A00009F476C092E0EC2EF12C8350890FD3E013
:1043B00067018D9FC00CD11C112480919608870144
:1043C000882309F467C0075F1F4F26E037E642E005
:1043D00068E370E083E190E00E94920D86012FEA8D
:1043E0003FEB42E060E170E080E190E00E94850CEC
:1043F0008091960887018D9F000D111D112426EBD9
:1044000033EE44E067E170E082E590E00E94850CC5
:104410008091960887018D9F000D111D112420E0C9
:1044200033EE44E069E370E085E390E00E94850CA0
:1044300061E080919508803308F060E020E040E082
:104440008C2F0E94A5158091950890E0019660E65A
:1044500070E00E949A328093950880919308909121
:104460009408019690939408809393088115914045
:1044700009F07CCD60E081E00E9444038F3F09F4A5
:1044800075CD35E0839FC00111248E51994FF6CD33
:1044900090E089CF045F1F4F26E037E642E068E3F3
:1044A00070E083E190E00E94920D86012FEA3FEBDD
:1044B00042E060E170E080E190E00E94850C809134
:1044C000960887018D9F000D111D112420EC3EEEF2
:1044D00044E067E170E080E590E00E94850C809107
:1044E000960887018D9F000D111D11242AE23FEFD0
:1044F00044E069E370E084E390E098CFEC2EF12C87
:104500008091960887018A30B0F50C5D1F4F26E038
:1045100037E642E068E370E083E190E00E94920DAC
:1045200080919608D3E087018D9F000D111D112405
:1045300020E033EE44E069E370E088E490E00E941C
:10454000850C87012DEB3DE842E061E170E082E2FD
:1045500090E00E94850C809196088D9F000D111DA2
:10456000112426EB33EE44E06DE170E083E390E04C
:104570000E94850C97CB095D1F4F26E037E642E08D
:1045800068E370E083E190E00E94920D80919608CC
:10459000D3E087018D9F000D111D11242AE23FEF0A
:1045A00044E069E370E085E490E00E94850C8701B7
:1045B0002DEB3DE842E061E170E082E290E00E9494
:1045C000850C809196088D9F000D111D112420EC03
:1045D0003EEE44E06DE170E080E390E0C9CF0091F1
:1045E000BE05802F90E08C01000F111F080F191FCE
:1045F0000C0F111D27EF31E942E070E060E090E020
:1046000080E00E94920D4ECB1F920F920FB60F9238
:1046100011248F939F938091E1009091E100937F0B
:104620009093E10083FF0FC01092E90091E0909316
:10463000EB001092EC0092E39093ED0010926A056B
:1046400098E09093F00082FF22C093E09093E900FD
:104650009091F200992319F09AE39093E8009091D9
:104660005B05992341F090915B05915090935B0518
:10467000911101C05D9A90916905992341F0909143
:104680006905915090936905911101C0289A84FFA2
:1046900018C08091E2008E7E81608093E20080915C
:1046A000E1008F7E8093E10080915C058E7E8061C9
:1046B00080935C059F918F910F900FBE0F901F907C
:1046C000189580FFF7CF8091E2008E7E8061809305
:1046D000E2008091E1008E7E8093E10080915C0594
:1046E0008E7E8160E5CF1F920F920FB60F9211243C
:1046F000CF92DF92EF92FF920F931F932F933F93EE
:104700004F935F936F937F938F939F93AF93BF93D9
:10471000EF93FF93CF93DF93CDB7DEB76C97DEBFF8
:10472000CDBF1092E9008091E80083FF25C068E0CA
:10473000CE0145960E947B0682EF8093E8008D892A
:1047400087FF39C09091E80090FFFCCF982F9076BA
:1047500009F034C19E894F89588D2F89F88C9111A9
:1047600031C0803861F580915A058093F100109234
:10477000F1008EEF8093E8006C960FB6F894DEBFE0
:104780000FBECDBFDF91CF91FF91EF91BF91AF9160
:104790009F918F917F916F915F914F913F912F9159
:1047A0001F910F91FF90EF90DF90CF900F900FBE71
:1047B0000F901F9018959EEF9093E800C7CF10922E
:1047C000F100D5CF913059F48111D3CF413051054B
:1047D00081F680915A058D7F80935A05CACF933018
:1047E00049F48111C6CF4130510519F680915A051F
:1047F0008260F2CF953041F48091E80080FFFCCFD9
:1048000020682093E300B5CF963009F0A9C00B8D46
:104810001C8D22E01092E900109258051092570565
:10482000F2122EC010925605109255050E944A06AB
:104830001F8299E09983FA8291E09E8390EA98879B
:104840009AEF99872091570530915805275F3F4F80
:104850003C832B838D831092E900109258051092AF
:104860005705109356050093550549E050E0BE01E9
:104870006F5F7F4F80E00E9424060E944A0679CF36
:1048800010935605009355050E942E05DC011296E3
:104890000D911C910115110509F451C1D801ED913B
:1048A000FC910480F581E02DBE016B5E7F4FC80155
:1048B0000995009709F03EC1F80100851185EACFFE
:1048C000F3E0FF120EC08F89882309F440C08230C4
:1048D00061F440E867E080EC92E00E94F10581110C
:1048E00048CF81E28093EB0047CF813029F440E844
:1048F0006BE084EB92E0F1CF833099F70E942E05B4
:10490000DC011296ED90FC908E010F5F1F4F680145
:10491000E114F10479F0D701ED91FC910680F78163
:10492000E02DB801C7010995080F111DF701E084BA
:10493000F184EECFD8011C92F60101900020E9F736
:104940003197BF016C197D0940E0C601C6CF6EE901
:1049500072E0FB01449150E080E80E94240609CFF8
:10496000973009F4BECF983021F481E08093F100B4
:1049700000CF993009F0FDCE837009F0B2CFE1E1AC
:10498000F1E081E031E096E32191222371F0809300
:10499000E9003093EB00DF0111972C912093EC009C
:1049A0009093ED008F5F873079F78EE78093EA0070
:1049B0001092EA008F8980936A05DBCE8B8D9C8DE7
:1049C0001092E900109258051092570590935605E1
:1049D00080935505898D811192C08E899D89913A68
:1049E00049F4813209F07DCF47E050E064E071E0A6
:1049F00080E0B3CF913209F074CF833269F48F89AC
:104A0000988DB0E0A0E08093000190930101A09305
:104A10000201B0930301ADCE803269F48091E800C9
:104A200082FFFCCF67E084E091E00E947B068BEF81
:104A30008093E8009ECE823209F09BCE8F898093CE
:104A40000B01EEEFFFE7859194918B3F9C4D51F167
:104A5000E0E0F8E08091040190910501A091060149
:104A6000B0910701803B9440A105B105F1F480911C
:104A70000B0180FD1AC0EE3F8AE0F80789F587E751
:104A800097E791838083809160008093590588E146
:104A90009BE00FB6F894A895809360000FBE9093AA
:104AA000600067CEEEEFFAE0D5CF80819181873745
:104AB000974709F05ECEA895809160008861809349
:104AC00060008091590580936000EE3F2AE0F20774
:104AD00089F08091FE0A9091FF0A9183808349CEEC
:104AE000808191818737980751F29093FF0A8093D4
:104AF000FE0AC5CF1092FF0A1092FE0A3ACE0E941B
:104B00002E05DC0112960D911C910115110509F479
:104B1000E8CED801ED91FC910190F081E02DBE012D
:104B20006B5E7F4FC8010995811123CEF801008586
:104B30001185EBCF181619060CF41BCED2CEF1E07E
:104B4000FF12BECE62EA72E004CF0F920FB68F93CF
:104B50009F93EF93FF93809146018D5F8D3708F00F
:104B60008D5780934601E7E4F1E080818E4F80838A
:104B700091819F4F918382818F4F828383818F4F59
:104B80008383EBE4F1E080818F5F808381818F4FAD
:104B9000818382818F4F828383818F4F83838FB103
:104BA0008F6066991C9B88278F3681F48091450120
:104BB000981B963068F0E0E0F8E087E78083818317
:104BC00088E180936000F0936000FFCF90934501EF
:104BD000FF91EF919F918F910FBE0F9018951F92AB
:104BE0000F920FB60F9211242F933F934F935F9321
:104BF0006F937F938F939F93AF93BF93EF93FF93A5
:104C0000EDE3F1E080819181A281B3810197A10957
:104C1000B10918F40E9482080BC080839183A2839B
:104C2000B3838481882321F4369A85818111379A50
:104C3000FF91EF91BF91AF919F918F917F916F9174
:104C40005F914F913F912F910F900FBE0F901F904A
:104C500018951F920F920FB60F9211248F939F9366
:104C600082E496E0909389008093880081E08093AD
:104C700054059F918F910F900FBE0F901F90189524
:104C8000109271051092700588EE93E0A0E0B0E0FC
:104C90008093720590937305A0937405B093750586
:104CA0008BE191E090936F0580936E058FEF9FEFFE
:104CB00090937B0580937A051092BF051092C005F2
:104CC000E7E6F6E084E2DF011D928A95E9F781E0EC
:104CD00080938B06ECE8F6E0108211821282359602
:104CE000B6E0E23DFB07C1F782E08093D20688E0A0
:104CF0008093D30681E08093D40694E19093D50607
:104D00001092D7061092D6068093D8061092D90634
:104D10009093DA068093DB061092DC061092DD0693
:104D20008093DE061092DF061092E0061092E106F4
:104D3000E2EEF6E08BE898E010821182128235965E
:104D40008E179F07C9F710928B0810928C0810924B
:104D50008D0810928E0810928F0881E08093900841
:104D600010929108809392081092AA080895CDB7E6
:104D7000DEB72997DEBFCDBF789483E084BD83E0A2
:104D800085BD81E080936E00E1E8F0E083E0808300
:104D9000E0E881E08083E1E983E08083E0E981E08D
:104DA0008083E1EC87E08083E3EC81E08083E0ECCA
:104DB00082E08083E2EC81E08083EAE787E0808321
:104DC0008068808310926A0510925A0510925C05E3
:104DD0008091D70081608093D70080EA8093D800CB
:104DE00089B5806189BD89B5826089BD09B400FE3D
:104DF000FDCF81E090E00E94BD078091D8008F7CBC
:104E000080618093D8008091E000807F8093E000F3
:104E10008091E1008E7E8093E1008DE08093E2003E
:104E2000559A209A81EC80937C0081EF85B987EEBA
:104E300084B982E38BB982EF8AB9769A6E9880EF53
:104E400081BB10BA80E58CBD81E08DBD0E94D10789
:104E50005F9A0E94D1075C98E3E3F1E085918EBDF3
:104E600000000DB407FEFDCFE034C1F75C9A81E885
:104E70008093640081E08093650062E080E491E0CB
:104E80000E94E01866E082E491E00E94E0189FB77B
:104E9000F89422E436E0309389002093880083E080
:104EA000809380008BE180938100109285001092A6
:104EB000840080916F00826080936F009FBF5E9A34
:104EC000E4E1F0E08AE695EF259135915591459121
:104ED0002851354909F4CA01809351019093520138
:104EE0008BEA0E94B5075E9A809164008E7F809362
:104EF000640080917A00806480937A0080917A00C7
:104F000086FDFCCF00917800109179000E9458082E
:104F1000AB01BC01C801B0E0A0E0DC019927882703
:104F20008C019D01040F151F261F371FC901B801F1
:104F30002091640021602093640061157105810552
:104F4000910511F00E940E325E9AE4E1F0E08AE6EB
:104F500095EF60EF7FEF259135915591459128515F
:104F6000354909F4CA01809351019093520125916A
:104F70003591559145912851354909F4BA0160930D
:104F80006B0570936C058BEA0E94B5070E9459046B
:104F90001092BF0510928B0825E0F22E5E98F894CF
:104FA00080915405811109C083B7816083BF7894D3
:104FB000889583B78E7F83BFF2CF10925405789483
:104FC000E0906D059EEFD92EDE0C1DEF1D1508F447
:104FD00047C001E01FEF2FE741E0B80183ED94E007
:104FE0000E941A0962E08AE491E00E94E0182FEF23
:104FF00047E0B80183E591E00E941A0962E088E485
:1050000091E00E94E0182DEFE3942D1530F080918F
:1050100053058F5F80935305E12CE0926D055E9AF6
:105020008091BF05803408F091C08C3210F00C9450
:105030004530813110F58E3008F04EC2883009F4C9
:1050400002C188F4882309F4F2C0873008F4F6C05E
:1050500080E090E0892B09F4A1CF0E9400009ECF50
:1050600001E010E0B8CF8C3009F4F1C008F05DC168
:10507000893071F70E94A410EBCF8C3160F48A3133
:1050800008F03EC6823109F408C110F3893100F7F7
:105090000E941316DDCF8F31D8F2823208F430C669
:1050A00084528730A8F60E943409882309F10E94AF
:1050B000930688E00E948806882359F08091BF05F6
:1050C000893208F06FC6853208F0EBC6843209F4E5
:1050D00071C684E00E948806882351F08091BF0544
:1050E000893209F460C708F040C7843208F044C729
:1050F000B0906D052091BF05293209F4B4C708F0BE
:105100005FC7243208F4A4CF80919B0890919A083D
:10511000891B90E082549A4FFC01E951FD4F308188
:10512000323009F083C725528D519D4FDC018C919F
:1051300028137CC780919C08833008F06AC78B2DA8
:105140000E94691820E040E060E089C78E3411F4C5
:105150000C94603108F049C0883460F4833408F05E
:1051600041C3803409F436C3823409F071CF0E9400
:10517000ED186ECF8B3408F4CEC48D3408F068CFB0
:105180000E943409882309F401C50E94930684E033
:105190000E948806882361F00E941A0AFC0180811F
:1051A0000E94E209882309F420C585E48093BF05A5
:1051B00088E00E948806882341F08091BF058B34E7
:1051C00009F415C58C3409F48FC580E40E94880663
:1051D000882319F08CE48093BF0580E20E94880642
:1051E000882309F4D3C48BE4CFC4873BA0F4843B69
:1051F00008F072C1853611F40C946E3130F48436A7
:1052000008F026CF0E947A1C23CF863609F020CFE3
:105210000E943A171DCF883B11F40C94693108F4B1
:105220005EC1893B09F014CF0E94411811CF8091D3
:10523000BE05882331F084E08093BF050E94C8102A
:1052400007CF82E0F9CF89E08093BF0513CF0E949A
:105250003409882351F00E94930688E00E94880652
:10526000882319F08DE08093BF05E0906D05409193
:105270008B086AE973E78AE00E94B9069B01482F10
:105280000E2D10E070E060E090E080E00E94920D52
:1052900020E040E060E08E2D9AC2E091D406E1501B
:1052A000FF0BE45BFE4F049110E00F5F1F4F4801BE
:1052B000012E000CAA08BB0881E090E0A0E0B0E05D
:1052C0000130110579F00E94BF31A50194012150F0
:1052D0003109410951090E941732DC01CB010196C5
:1052E000A11DB11D8093960881E090E0A0E0B0E0A0
:1052F0000130110579F00E94BF31A50194012150C0
:105300003109410951090E941732DC01CB01019694
:10531000A11DB11D8093970884E18093BF05809102
:10532000D4068F5F8093D406B3CE8FEF8093980816
:1053300040918B0861EE75E88AE00E94B9063B0156
:10534000882E0E94C7060E94720380938B080E94D9
:1053500072038093E1060E947203809366060E94A6
:10536000720380938C080E94720380938D080E94C0
:1053700072038093D2060E9472038093D3060E9428
:10538000720380938B060E947203809399080E9497
:10539000720380939A0880939B080DE918E081EAD4
:1053A000C82E88E0D82E0E947203D8018D938D01FB
:1053B0000E947203F80183831782C016D10699F701
:1053C00007E616E0BBE8CB2EB6E0DB2E0E947203A8
:1053D000D8018C930E947203F80181830E947203AA
:1053E000D80112968C930E947203F80185830E9463
:1053F0007203D80113968C930E947203F801848380
:105400000A5F1F4FC016D10609F70E947D040E9453
:10541000D306A2EECA2EA6E0DA2EF6011082359649
:1054200008E0EB38F007D1F760918C0880918D0887
:10543000689FB0011124072E000C880B6A5C7F4F17
:105440008F4F660D771D881D0E94C7060E9472034C
:10545000E12C882321F1EF9C8001112498012E5129
:10546000394F5901D9018C930E947203F501818350
:105470000E947203D50112968C930E94720302540B
:105480001A4FF801E95DFE4F80830E947203085DA8
:105490001E4FF80180830E947203E394DACF0E94CA
:1054A0007D04D601EC9183E88E0F823150F4EE57E3
:1054B000F0E0E05AFE4FE4911396EC9313971496A4
:1054C000EC93B5E0CB0ED11CEBE8CE16E8E0DE069F
:1054D00041F78EE08093BF050E94101BB9CD0E945A
:1054E00034098823A1F00E94930688E00E94880670
:1054F000882319F08EE28093BF0584E00E9488061D
:10550000882319F08EE28093BF050E947419F091F0
:105510006D05F9879091D30620918C0830E0809139
:105520008F08943008F0AFC09DEF980F192F110F1E
:10553000190F110F145E4091D20690918E084830D9
:1055400008F0ADC029EF290FE22EEE0CE20EEE0CB2
:1055500024E3E20E292F30E0225F3F4FE2EEF6E037
:10556000712C008161803280002309F4A9C03816B3
:1055700030F0691620F06216130631F02CF07394A7
:10558000359645E57412EDCF1A508EEB95E098876D
:105590008F83B12CA12C9985892E912CEE82D12C50
:1055A000C12C8AE0810F482E880F550880918C0805
:1055B0008C151D0409F00CF486C080918D088A15A5
:1055C0001B0409F00CF47FC0EF81F885EC0DFD1D84
:1055D000838190918E08292F30E04091D20650E0CF
:1055E000421B530B4C155D0559F44091D306509165
:1055F0008F08451B550B222423944A155B0509F09F
:10560000212CAFEF7A1609F480C0A9014C0D5D1D65
:105610006416150609F079C040918F084A0D5B2D7C
:10562000511D3416150609F070C0083608F053C035
:10563000043608F05AC00E3008F047C00C3030F481
:10564000013008F446C08EEF0B3008F48AEF7394F3
:105650007F9CF0011124EE51F94F225F3F4FB4E5DA
:10566000B71508F452C0008161803280002309F42C
:105670004AC0961528F46216130609F00CF445C0CA
:1056800073943596ECCFA901465051091AE094174E
:1056900015060CF050CF082F091B902F47CF27502D
:1056A0003109F4E0EF2E421713060CF053CF292FE7
:1056B000241BE22EEE0CE20EEE0C34E3E30E4ACF96
:1056C00077247A9461CF81E084CF8EEC800F86308E
:1056D000C0F080E0BCCF023A50F48DEF003A08F001
:1056E000B6CF83E8800F8231A0F78BEFB0CF083AB6
:1056F00080F38CEF033C08F4AACF8AE1800F8A3054
:1057000040F789EFA4CF77247A949E819350963501
:1057100008F51532F8F4882399F097E0980F963041
:10572000C8F4885F9401F3E08F9F200D311D112490
:1057300047EC51E0B201AE818A2FAA0F990B08C045
:10574000940147EC51E0B201EE818E2FEE0F990BE0
:105750000E94C9182220A1F020918B06822F90E090
:105760009C01220F331F280F391F280D391D41E7D7
:1057700051E0B201BE818B2FBB0F990B0E94C9185B
:10578000EFEFCE1ADE0AFE81FA5FFE832FE0C2162B
:10579000D10409F00BCF3FEFA31AB30A1A5F8F8130
:1057A00098850F9698878F839BE0A916B10409F01E
:1057B000F5CE840124E93FE045E070E060E090E050
:1057C00080E00E94850C20E040E060E089850E9436
:1057D000A5153ECC109294081092930882E4809311
:1057E000BF05C5CC0E943409882309F446C00E9435
:1057F000930684E00E948806882319F082E480934F
:10580000BF0588E00E948806882379F01091BF05C3
:105810000E941A0A153409F46AC008F062C01334F1
:1058200009F477C0143409F4D6C080E40E948806D5
:10583000882371F08091BF05853418F48F5F8093C1
:10584000BF058091BF05863419F487E48093BF05B6
:1058500080E20E948806882381F08091BF059CEB3E
:10586000980F923018F481508093BF058091BF0546
:10587000873418F081508093BF05E0906D058091CA
:10588000BF058354990B8C01000F111F080F191FBE
:10589000CE2CD12C0C0D1D1D809190082BE03CE3EB
:1058A00043E070E060E090E0811125C180E00E945B
:1058B000920D61E08E2D0E94BB0C0E941A0AFC0121
:1058C0004081415066E779E78AE00E94B906860187
:1058D0009B01482F6FE070E089E290E00E94850C08
:1058E000D7CC163409F477C0173409F09ECF60E0A6
:1058F00080E00E9444038F3F51F08F9DF0011124FE
:10590000EE51F94F8081805F8F3008F0F2C08BE458
:1059100063C0DC01EC91E150EA3008F05CC0F0E0DB
:10592000EC56F34D0C94AE32EF2CEF2C3C2D3C2D6D
:10593000E92C9E2CEB2CEB2CEB2CE92C0E94BF319C
:1059400024E030E040E050E00E9417328AE0860F09
:105950000E944E020E940D0A0E94B9021091900806
:10596000113071F4009191080E941A0AFC018081A3
:10597000011106C0811104C0109290081093910883
:1059800014E002E00E941A0ADC019C9180919008C8
:10599000911121C0813071F028F08530D8F70E9434
:1059A000E301F0CF80919108823060F38FEF0E9485
:1059B000F601E8CF80919108811105C00E94E301B2
:1059C00000939108DFCF8FEF0E94F60110939008AB
:1059D000D9CF0E94B90982E48093BF0526CF2091D8
:1059E000900821110DC00E947802182F80E00E94BB
:1059F000B902812F6F2D0E947A32909390081CC0BB
:105A000025E0ECE8F6E0DE01119601900D922A9572
:105A1000E1F720918C06211118C025E0FC01ACE8CB
:105A2000B6E001900D922A95E1F70E940D0A0E94BE
:105A3000B9021092900881E08093910881E090E093
:105A40009093940880939308C6CF25E0FC01ACE8BE
:105A5000B6E001900D922A95E1F70E940D0AF89E9A
:105A6000D0011124A457B94FFE0131968F2D01901A
:105A70000D928A95E1F7DDCF20919008211105C0A4
:105A80000E947802182F81E0B2CF25E0E1E9F6E02C
:105A9000DE01119601900D922A95E1F72091910671
:105AA000211110C025E0FC01A1E9B6E001900D92A2
:105AB0002A95E1F70E940D0A0E94B90210929008FF
:105AC00082E0BACF25E0FC01A1E9B6E001900D9299
:105AD0002A95E1F70E940D0AF89ED0011124A457DF
