:100000000C94A0010C94C8010C94C8010C94C80174
:100010000C94C8010C94C8010C94C8010C94C8013C
:100020000C94C8010C94C8010C940A240C947924F3
:100030000C94C8010C94C8010C94C8010C94C8011C
:100040000C94C8010C942F270C94C8010C94C8017F
:100050000C94C8010C94C8010C94C8010C94AB26F4
:100060000C94C8010C94C8010C94C8010C94C801EC
:100070000C94C8010C94C8010C94C8010C94C801DC
:100080000C94F5260C94C8010C94C8010C94C8017A
:100090000C94C8010C94C8010C94C8010C94C801BC
:1000A0000C94C8010C94C8010C94C8010406060500
:1000B0000608060607070808FFFFFFFFFF02040304
:1000C00005050604040405FFFFFFFFFFFFFF0D0DFC
:1000D0002936435029364350293643501B280E0EEB
:1000E0000E0E1B1B1B1B282828280D293643500DDC
:1000F000293643500D293643500E0E0E0E0E1B1B93
:100100001B1B1B2828282828DC0024E2164AD0E8DC
:10011000001830E904234261DCE8F4000C182406DE
:100120000E1A2C3E4A5612160C080A141E28323C8F
:1001300046505A080B0002020200000904000001A8
:10014000020200000524001001052401010104241D
:10015000020605240600010705810310004009047A
:100160000100020A00000007050202400000070526
:1001700083024000000403090412010002EF02019F
:100180004041233680000101020301417264756918
:100190006E6F204C4C430041726475626F7900D5DC
:1001A000F08D14A1C881CFD9F1AF2000DB20C0A011
:1001B000D921A800A800A83F0102020303040405F6
:1001C0000506060707080809090A000006080709C6
:1001D0000809060705060A0BFFFFFFFFFF0708FFD8
:1001E000FFE7F3E7FFFF2A7F2673267F2A2A7F2671
:1001F00073267F2AFFFFEBE3F7FFFF2A7F2A633690
:100200007F2A2A7F2A63367F2AFFFFF3E7F3FFFF67
:100210002A7F3267327F2A2A7F3267327F2AFFFFA6
:10022000F7E3EBFFFF2A7F36632A7F2A2A7F3663B4
:100230002A7F2A0708FFFFFFFFFFFFFF2A7F3E7F7D
:100240003E7F2A2A7F3E7F3E7F2AFFFFE3EBE3FFCC
:10025000FF2A7F226B227F2A2A7F226B227F2AFF9E
:10026000FFE3E3E3FFFF2A7F2263227F2A2A7F2224
:1002700063227F2AFFFFEBF7EBFFFF2A7F2A772A13
:100280007F2A2A7F2A772A7F2AFFFFEFF7FBFFFFCB
:100290002A7F2E773A7F2A2A7F2E773A7F2AFFFFFE
:1002A000FBF7EFFFFF2A7F3A772E7F2A2A7F3A77E4
:1002B0002E7F2AFFFFE3F3F3FFFF2A7F2273327FB3
:1002C0002A2A7F2273327F2A000D0C0C140F0C1A7D
:1002D00017001F292724241C2724020202020A14C3
:1002E0002850505050505050505050505050505036
:1002F000505013242C3000111A1D13242C300017D9
:100300001C1D00242C3000171B1D13242C30001141
:10031000191D14242C3004111A1D1C242C30041116
:10032000191D252B30300F171C1A0417272F3335B2
:10033000394151040206080A020406080A00462749
:1003400011241FBECFEFDAE0DEBFCDBF12E0A0E088
:10035000B1E0ECEFF7E602C005900D92A432B107D0
:10036000D9F729E0A4E2B2E001C01D92A53AB20794
:10037000E1F711E0C0EAD1E004C02197FE010E943C
:10038000F633CF39D107C9F70E94BD270C94FC334F
:100390000C9400002091D0073091D107280F391F0D
:1003A0001816190644F42436310550F43093D10759
:1003B0002093D007089537FFF9CF30E020E0F6CF43
:1003C00023E630E0F3CF80918B09882339F0833026
:1003D00020F480918A09811105C0089580918A09CD
:1003E0008230D8F3815080938A09F7CF90918A099F
:1003F000992339F0953020F490918B09911105C023
:10040000089590918B099230D8F3890F80938B09CE
:10041000F7CF94E19093CF071092D1071092D007B5
:1004200081E08093D2071092D3079093D4078093F2
:10043000CE071092860710928B07109290071092A9
:10044000950710929A0710929F071092A407109296
:10045000A9071092AE071092B3071092B807109236
:10046000BD071092C2071092C7070895E091860752
:10047000EE2331F0E150F0E0E85CFC4F8491089508
:1004800080E00895E0918B07EE2331F0E350F0E037
:10049000ED5CFC4F8491089580E008959091D4071D
:1004A0004091CF07282F082E000C330B240F311D4D
:1004B000181634F49217130634F0982F940F03C0D3
:1004C00090E037FFFACF9093CF07089592E0811123
:1004D00090E085E0989FF0011124EA57F84F80E002
:1004E000208121118F5F9F5F35969E30C9F7089557
:1004F0002091CC0790918809291B330BA901480F43
:10050000511D87FD5A95CA012091860924171506A9
:1005100089F080F02091CD0730918909231B330B9E
:10052000260F311D67FD3A95409187094217130642
:1005300009F018F48091600708956FE0629FA001B0
:10054000639F500D11244854594F840F951FFC018F
:1005500083810895962F20918507213051F030F046
:10056000223049F0233059F080E00895682F6195DA
:10057000892F0C947802682F892F8195FACF619585
:10058000FCCF9091CC07980F8091CD07680FECEDD0
:10059000F7E080E02081222351F02181921303C0F3
:1005A0002281621729F08F5F3596853599F78FEF95
:1005B0000895962F20918507213051F030F0223098
:1005C00049F0233059F08FEF0895682F6195892FF6
:1005D0000C94C102682F892F8195FACF6195FCCFC9
:1005E00095E0899F900111242452384F843560F49E
:1005F00095E0F9013596D90101900D929A95E1F7B0
:100600008F5F2B5F3F4FF2CF1092800908950DB49A
:1006100007FEFDCF8EB51EBC0895CF93DF93C82F84
:10062000D62F0E947802811128C06D2F8C2F0E9436
:10063000C1028F3FC9F0482F50E095E0899FF0013B
:100640001124E452F84F8081803A09F46EC008F515
:10065000843360F4823308F08FC0853028F08C300A
:1006600088F08E3008F4A3C081E077C0883638F473
:10067000843608F06CC08833B8F780E06EC08D57C0
:10068000823190F781E09091B906973B09F065C0FF
:10069000F4CF873B28F5833B08F062C08B3A09F41E
:1006A00044C090F4883A01F78091B906873B29F35A
:1006B000E6E8F7E080818A3009F48CC0359687E05F
:1006C000EC3CF807B9F7D9CF8F3A70F28091B906B0
:1006D000873B99F280918509813001F188E03DC026
:1006E000833CF0F42091B9068D3B08F440C0273BD1
:1006F00021F2949FF001959FF00D1124E152F84FE3
:1007000080818F3F09F4B0CF80919509833009F043
:1007100063C080918509813009F05EC089E01DC009
:10072000865E8A3008F4A9CF9FCF8091B906873BB7
:1007300009F4A3CFE6E8F7E08CEC97E020812530C0
:1007400009F448C035968E179F07C1F796CF809160
:10075000B906873B09F491CF83E0DF91CF910895EB
:100760008091B906873B09F488CF84E0F6CF86E014
:10077000273B09F482CFF1CF8091B906873B09F47A
:100780007CCF809185078093D8078091CC07809398
:10079000D9078091CD078093DA0780916007809315
:1007A000A3098091DB078093A40987E0D6CF8091CD
:1007B000B906873B09F461CFE091950980919409CE
:1007C000E81BFF0BE156F64F81E09081913009F074
:1007D00054CFC3CF82E0C1CF85E0BFCFE8EBF6E0D6
:1007E000ADEEB2E060E070E080E00E9475049D0133
:1007F000AF0160E00E940D048217930751F4D90104
:10080000FA0160E00E94070381931197D9F761E034
:10081000F1CF0E941204862F08950E940703982F9B
:100820000C9407030DB407FEFDCF8EB5599A0895B9
:100830002DEE32E0E8EBF6E0A0E0B0E0BD0180E0B4
:100840000E9475040E946404BD011296A20FB31F9A
:100850008217930799F38F5F9F4F21F4AF5FBF40DB
:10086000DB0178F00E944F0740E0509165066091EF
:10087000660680E20E946904599A0E943606A0E04A
:10088000B0E07CEF0E944F074A2F509165065B0F46
:1008900060916606611D82E00E946904832F71FDEC
:1008A000822F70FD81910E948104759518F421506A
:1008B000304019F01196AA2389F7599A0E943606FA
:1008C00021153105F9F608950E940703982F0C941D
:1008D000120459980E948104862F0E948104852F5A
:1008E0000E948104842F0C948104462F5091650648
:1008F000570F60916606681F83E00E9469041EBC62
:1009000008958EBD00008EB50DB407FEFCCF08958E
:10091000FC0180916406882311F13FB7F89482E0CE
:100920008093E9002091F200822F90E018161906BA
:1009300014F481E090E0882339F0289844E640934D
:1009400063064091F1004083222339F02091F200A8
:10095000211103C02BE62093E8003FBF08958FEFDD
:100960009FEF08952FB7F89483E08093E90090916A
:10097000E800892F807295FF04C09091F20080E416
:10098000891B2FBF089580915B0681110DC082E005
:100990008093570684E08093580610925A0610926E
:1009A000590681E080935B0687E596E008954091C3
:1009B0004D0250914E0220914B0230914C02421751
:1009C0005307B4F49091E8009570E1F39091E8003A
:1009D00092FD19C08093F10080914D0290914E02DA
:1009E00001968F739927892B19F48EEF8093E80075
:1009F00080914D0290914E02019690934E02809309
:100A00004D0281E0089580E00895EF92FF920F93E8
:100A10001F93CF93DF93F82E192FE62E042F81E03A
:100A2000860F880F0E94D70483E00E94D704CF2D41
:100A3000D12FEC0EFD2EF11CCE15DF05B9F007FF0E
:100A400013C0FE0184910E94D704182F80E00E94F9
:100A5000D704812321968111EFCFDF91CF911F9190
:100A60000F91FF90EF9008958881EDCF81E0F5CF51
:100A7000DF92EF92FF920F931F93CF93DF93D82EC5
:100A80008A01EB017B01E40EF51ECE15DF0559F05E
:100A9000D7FE12C0FE0184910E94D70421968111D5
:100AA000F4CF0FEF1FEFC801DF91CF911F910F918E
:100AB000FF90EF90DF9008958881EECF0F931F9302
:100AC000CF93DF931F92CDB7DEB782E0898342E4F4
:100AD00050E063E371E080E80E9438050E94C3049F
:100AE000DC0112960D911C910115110589F0D801B8
:100AF000ED91FC910280F381E02DBE016F5F7F4F8D
:100B0000C801099597FD04C0F80100851185ECCF57
:100B100089810F90DF91CF911F910F9108956150BE
:100B200030F02091F100FC0120830196F8CF289845
:100B300084E6809363060895CF93DF931F92CDB729
:100B4000DEB76983DC01ED91FC910280F381E02D39
:100B500041E050E0BE016F5F7F4F09950F90DF913C
:100B6000CF91089583E08093E9008091F20088237B
:100B700019F08AE38093E80008950E94B20490E09F
:100B80000895CF93DF931F92CDB7DEB7FC01848524
:100B9000958597FD08C02FEF3FEF358724870F908D
:100BA000DF91CF910895CE0101960E9488040197AC
:100BB00019F4898190E0F3CF8FEF9FEFF0CF0F937F
:100BC0001F93CF93DF931F92CDB7DEB78C01FC014B
:100BD0008485958597FF0BC0CE0101960E948804FD
:100BE000019771F4898190E0F80195878487F80175
:100BF000848595850F90DF91CF911F910F91089576
:100C00008FEF9FEFF1CFFC018485958597FD0BC099
:100C10009FB7F89482E08093E9008091F2009FBF33
:100C200090E0019608959FB7F89482E08093E900E0
:100C30008091F2009FBF90E0089590914A0298231E
:100C400029F490914902982381E009F480E0089505
:100C50008091490280934A028FB18095807F669B84
:100C600088601C9B8460809349020895599885E0B0
:100C70000E94810480E00E94810480FDFBCF599A8C
:100C8000089590E0409F09F4142E5527090E151E73
:100C9000600D711D851F11240C945C060F9303E0F9
:100CA00020E00E9441060E940D04782F0E94120449
:100CB000682F892F0F910895462F50915302570F97
:100CC00060915402681F83E00E9469041EBC08956D
:100CD0009F92AF92BF92CF92DF92EF92FF920F93CB
:100CE0001F93CF93DF93ECEDF7E091E080818F3895
:100CF00008F07FC08D3748F48C3008F483C08E3004
:100D000020F08456843008F07DC0359649E0E538FF
:100D1000F40761F740916007C8EBD6E09E018FE0D1
:100D2000F9019BE0438391503F969111FBCF815095
:100D30002F5F3F4F8111F4CF8091CD07833008F0B2
:100D400063C0109289098091CC07873008F06CC08D
:100D5000109288094091850965E677E88AE00E944B
:100D60004E069091890920918609929F9001112445
:100D7000C0908809D12CE12C56E3C50ED11CE11C92
:100D8000C20ED31EE11C37FDEA94C60ED71EE81E24
:100D900080918709292F30E0265F3F4F682F6150EF
:100DA000770BF82EF91A2617370714F49BE0F92E63
:100DB000912C8FE0A82EB12C8E01015F1F4F9F1444
:100DC00009F442C08E2DB6010E945C06FE013396E6
:100DD00095010E940703819321503040D1F70E9472
:100DE000120480918609C80ED11CE11C9394E8017D
:100DF000E3CF833B38F0833C08F487CF825D8330B8
:100E000008F483CF938381CF90918709692F635032
:100E1000770B8617170624F483508093890993CFA4
:100E20009750909389098FCF90918609492F475009
:100E3000550B8417150624F09F50909388098ACF8C
:100E400087508093880986CFDF91CF911F910F91B2
:100E5000FF90EF90DF90CF90BF90AF909F9008955C
:100E600096E0899FF0011124EF59F84F808180931B
:100E7000850981818093DB0782818093600785816A
:100E80008093850783818093CC0784818093CD07ED
:100E90000C94680659980E948104599A089586E036
:100EA0000C944A07FC010E94ED07319728F0685125
:100EB0007C4F8F4F9F4FF9CFAB01FC010E94ED0794
:100EC000641775078E079F07C8F3089585E090E0C3
:100ED0000C9452078F929F92AF92BF92CF92DF9263
:100EE000EF92FF920F931F93CF93DF936C017B01DF
:100EF0008A0180910B01882309F45AC0809164060D
:100F0000882309F455C08091510280FF05C080916B
:100F1000E00082608093E000E801B12C8AEFA82E07
:100F200093E0892E2AE3922E209711F4BB20C9F179
:100F30000E94B204811108C0AA94AA20C9F181E0DC
:100F400090E00E945207F0CF8C171D0611F00CF0B4
:100F50008C2F9FB7F8948092E9002091E80025FD3E
:100F600002C09FBFE1CF282F30E0C21BD30BF70197
:100F7000815020F041914093F100FACFE20EF31E30
:100F8000BB2021F09092E800B12CEBCF8091E800DB
:100F900085FDE7CF9092E800BB24B394209709F336
:100FA000F3CF5D9884E680935002101611063CF052
:100FB00081E090E0F6019383828310E000E0C801B5
:100FC000DF91CF911F910F91FF90EF90DF90CF9025
:100FD000BF90AF909F908F900895A5E4B2E02FB797
:100FE000F8947D918D919C9166B52FBFA89B05C00B
:100FF0006F3F18F47F5F8F4F9F4F22E0660F771F80
:10100000881F991F2A95D1F70895ECE2F2E08285B6
:10101000082E880FA681A80FB781B11D8D919C91D4
:101020000394A0850A1608F00024028608950F9301
:101030001F93CF93DF930E940508811520E8920744
:1010400071F4809171008D7F8093710010929100F6
:1010500046984798DF91CF911F910F91089597FD82
:1010600005C020913D02222309F44DC020913E028B
:10107000211149C021E020933C02EC01DF77209749
:1010800009F044C081E080933B0246980FE91FE0DD
:10109000CAEFD0E0F0E0E0E00995811103C081E003
:1010A00080933B0280913C02882321F080913B0297
:1010B0008823D9F147980E9405082FEF3FEFA90137
:1010C000009751F09C01DE010E94B33324EF31E020
:1010D00040E050E00E949133109290008AE08093AB
:1010E0009100109399000093980020933702309359
:1010F00038024093390250933A0280917100826025
:1011000080937100A7CF10923C02B7CF9E0150E0B0
:1011100040E060E472E48FE090E00E945F33890178
:101120000150110910923B02B5CF4699C3CF479A9F
:10113000C2CFFC019081292F30E0260F311D67FDC1
:101140003A95161634F4243631053CF4690F608361
:10115000089537FFFBCF60E0FACF63E6F8CF30E7C2
:101160003CBDDC0130E8439FC0011124A80FB91F2A
:101170005E91352F6111372F3C93C89500C05223E3
:101180005EBD0197A9F704D003D030E50DB43CBD96
:10119000089580915506882329F081508093550643
:1011A00081E0089580E00895E0919209EF3FA1F079
:1011B0004E2F50E025E0E29FF0011124E452F84F59
:1011C000908191509D3040F4249FF001259FF00DB7
:1011D0001124E152F84F8083089580918D099091F8
:1011E0008E09019690938E0980938D098F3F91050A
:1011F00019F48EE08093B9060895CF93C82F8530F7
:1012000021F08A30A9F081E011C060E081E00E9405
:10121000D9028F3F69F08C9FF0011124E452F84FFE
:101220008081803A81F38B3A71F380E0CF91089509
:1012300060E081E00E94D9028F3FB9F395E0899F79
:10124000F0011124E452F84F8081883A71F7DBCF26
:1012500090918A0980918B09911102C08150089563
:10126000880F880F9F5F890F089590918A09809158
:101270008B09911108C0815025E0829FC001112483
:101280008A57984F0895880F880F9F5F890FF4CF72
:10129000CF93DF93EC018B8190919009981788F49C
:1012A000891B9091B9068B8386E5903609F080E51D
:1012B0008093B90610928E0910928D09DF91CF911B
:1012C0000895E881ED57E150FF0BE354FF4FE4919F
:1012D000E09390098E2F90E00E94CA011B8281E664
:1012E000E7CF8091CF07882321F18091B90685351A
:1012F00071F08F3551F08335D9F486E58093B906C6
:1013000010928E0910928D09089580E6F7CF809192
:10131000D6078093CC078091D7078093CD07809123
:10132000D507809385070E9468068EE08093B906F2
:10133000089582E6FBCF4F925F926F927F928F92D9
:101340009F92AF92BF92CF92DF92EF92FF920F9354
:101350001F93CF93DF9300D0CDB7DEB7A5E5B2E002
:101360003A01862EE02FBB24482E969596959695A9
:1013700041E0E1FC44E0E0FC440FE2FC42955FEF19
:10138000549F6001C094D094F594E794F594E79449
:10139000F594E7943E2D3F3F4CF43095931B20FD90
:1013A000330F389F600C711C8B1C3FEF17FF0BC075
:1013B000400E20FF02C0000F111F601A710A8B0837
:1013C00017FD8394EE2750E835030E0EA00DB11DD6
:1013D0005E1B451608F0452E57E0531B591714F4B1
:1013E000952FB39450E85419682F772721FD02C038
:1013F0006419770B20FF02C0660F771F1124A32EFC
:1014000021114EC0F301292F30308CF4A058BF4F6A
:10141000142D8591849F0C910D2101290D931A950E
:10142000C1F711242A95A419B109E60FF71F222349
:10143000C9F0ED01C058DF4F142D8591849F0C91A8
:101440000C2100290D9308810D21012909931A957A
:10145000A1F71124A50FB11DC50FD11DE60FF71F70
:101460002A9551F7BB2041F08591849F0C910C2166
:1014700000290D934A94C1F711240F900F90DF912A
:10148000CF911F910F91FF90EF90DF90CF90BF9081
:10149000AF909F908F907F906F905F904F90089546
:1014A000213009F04CC0F301292F3030B4F4A0589A
:1014B000BF4FF42C85910591849FC001049F80014A
:1014C000EC901095E122E92AED92FA9499F7112413
:1014D0002A95A419B109E60FF11D2223F9F0ED01B7
:1014E000C058DF4FF42C85910591849FC001049F63
:1014F0008001EC900095E022E82AED92E8801095BA
:10150000E122E92AE992FA9471F71124A50FB11D9D
:10151000C50FD11DE60FF11D2A9521F7BB2069F0FB
:1015200085910591849FC001049F8001EC900095F6
:10153000E022E82AED924A9499F711249ECF009078
:101540005302700C00905402801C19C0599833E06B
:101550003EBD660E771E811C5524841509F05394F8
:101560000AD08EBC07D07EBC05D06EBC03D01EBC9A
:1015700003D00895C8950000C895C8950895661AC7
:10158000770A8108E3DFA1141CF0992371F564C088
:10159000A058BF4FE42C20FD0CC00EB51EBC049F0C
:1015A0009C909D2091289D92C89500C0EA94A9F72F
:1015B00011C00EB51EBC049F8001DEDFCEB41EBC80
:1015C000C49E60019C90D0949D20912A9D92C895C4
:1015D000EA9479F71124A419B1099A9509F45CC029
:1015E000552019F00DB4599AB1DFFD01E058FF4FB5
:1015F000E42C20FD0EC00EB51EBC049F9C909C20C8
:1016000090289D9290809D2091289192EA9499F73C
:1016100016C00EB51EBC049F80019C90D080AEDF2A
:1016200000C0CEB41EBCC49E00949020902A9D920F
:101630001094D120D12AD1920000EA9451F71124BC
:10164000A50FB11D9A9561F6BB2031F1552021F00F
:101650000DB4599A7BDFC89520FD0CC00EB51EBC99
:10166000049F9C909C2090289D92C89500C04A940D
:10167000A9F712C00EB51EBC049F80017DDF9EB588
:101680001EBC949F902D9C9090959922902A9D929B
:10169000C8954A9479F7C8951124599A0DB4EDCE9E
:1016A0006F927F928F92AF92CF92DF92EF92FF92E2
:1016B0000F931F93803891050CF037C0603471058B
:1016C0000CF033C0A42FB0E0FD01E80FF91F1E1687
:1016D0001F060CF02AC0E22FF0E03F01660E771ED5
:1016E000161417040CF021C03701802E7B018C01E9
:1016F0009E2F8827842B9B2BC114D10489F026951B
:1017000026952695A0FC220F249FF001EC9DD00188
:10171000ED9DB00DFC9DB00D6A0E7B1E1124811C49
:101720002A2D682DA3010E949B091F910F91FF9004
:10173000EF90DF90CF90AF908F907F906F90089553
:101740007F928F929F92AF92CF92DF92EF92FF9211
:101750000F931F93CF93DF93EC014B016901E42EAC
:10176000842FB9010E945C060E940703782E0E9414
:1017700012044E2D96012E5F3F4F4F4F93E0A92E3E
:1017800068017901042F282F472DB401CE010E9452
:10179000500BDF91CF911F910F91FF90EF90DF9051
:1017A000CF90AF909F908F907F9008953F924F92EF
:1017B0005F926F927F928F929F92AF92BF92CF92E1
:1017C000DF92EF92FF920F931F93CF93DF93E82E58
:1017D00052E0552E611102C04EE0542E8091B906A0
:1017E000823431F580918D0990918E09009731F006
:1017F00060E370E00E94CE3360FD1AC0E0918B0977
:1018000025E0E29FF0011124E750FF4F6491E09141
:101810008A09F0E0E651FF4F84910E2D10E06250EE
:10182000770B21E630EA43E08250990B0E94A00B2F
:1018300086E8A82E87E0B82ED12CC12CF12C9CED87
:10184000692E90E0792E23E0422E3DED832E30E08C
:10185000932EF50190819923F1F0F601E452FF4FA8
:101860006491E601C253DF4FFE0184918701F3E0EA
:101870009F9F000D111D11240350110970E02FEAE4
:101880003BE943E090E00E94A00BCC2069F121E00D
:10189000C21609F44CC0FFEFCF1ADF0A25E0A20EF2
:1018A000B11CC514B0F280918D0990918E090097FA
:1018B00049F00196803F910509F44AC090938E0942
:1018C00080938D09DF91CF911F910F91FF90EF9041
:1018D000DF90CF90BF90AF909F908F907F906F9050
:1018E0005F904F903F900895F3016491FE018491C1
:1018F00070E090E0870123E43DEC43E009960E940C
:10190000A00B0E943602F3016491FE01C491849DF4
:10191000000D111D112470E06E5F7F4F8C2F90E041
:101920002AE23FEF44E040960E94A00BB4CFF401BE
:101930006491FE01849170E090E0870123E43DEC26
:1019400043E009960E94A00B0E944202F401DCCF02
:1019500010928E0910928D09B5CF7F928F929F922F
:10196000AF92CF92DF92EF92FF920F931F93CF939C
:10197000DF93EC014B016901E42E842FB9010E9431
:101980005C060E940703782E0E9412044E2D9601D9
:101990002E5F3F4F4F4F92E0A92E68017901042F2F
:1019A000282F472DB401CE010E94500BDF91CF911B
:1019B0001F910F91FF90EF90DF90CF90AF909F908D
:1019C0008F907F9008952F923F924F925F926F92E7
:1019D0007F928F929F92AF92BF92CF92DF92EF92BF
:1019E000FF920F931F93CF93DF93782EE62E909163
:1019F00086098091CD070091CC0710E0989F000DDB
:101A0000111D1124680141E0C422DD24C1E060E021
:101A10008C2F0E94AA020FEF080F023008F0B6C008
:101A2000472D440F440F470D41504C0F69EC78E7A8
:101A30008AE00E944E069B01482F10E0000F111F04
:101A40000C0D1D1DC801880F991F080F191F0E0DC1
:101A5000111D70E060E090E080E00E94AD0C89E034
:101A6000789E40011124789E702C1124D12CC12C19
:101A7000AE2CB12C68E0662EDC2DD43091F1562CC2
:101A80005C18D43008F45C2C1FEFD43008F011E05F
:101A9000F52C612F8F2D0E94AA029FEF980F923094
:101AA00008F0A2C0FC1608F09FC08601065D1C4F1E
:101AB0005F1084C0472D4D0F813009F04AC266EF98
:101AC00078E78AE00E944E069B01482FD77FF801F5
:101AD00009F082C08491850164E070E090E00E948A
:101AE000AD0C4FEFC41AD40A59E0C516D10409F061
:101AF000C3CFC15085E0482EF12C9CECA92E97E075
:101B0000B92E20E1322E3EE1832E33E0932E4AE1BE
:101B1000642E43E0742E5AE1252E60E08C2F0E9443
:101B2000D902582EDFEFDC0F8FEF5816C9F0252DA4
:101B300030E0549CC0011124FC01E452F84F6F01C5
:101B400040814F3808F07EC04D3708F0A1C14E30BB
:101B500008F04FC04C3008F07DC1413008F0D9C0CA
:101B6000CD2FDF3FD1F6DF91CF911F910F91FF90E5
:101B7000EF90DF90CF90BF90AF909F908F907F902D
:101B80006F905F904F903F902F900895CF5FC5303A
:101B900009F03DCF81E0870D482F440F440F480FD7
:101BA000415069EC78E78AE00E944E069B01482F7D
:101BB0008601000F111F0C0D1D1D49CF4D2F480D23
:101BC000440F440F41504F0D68E979E78AE00E94C5
:101BD0004E069B01482FF8018491850164E070E076
:101BE00090E00E94A00B7DCFF394F5E0FF1251CF5F
:101BF00078CF4456443008F0B3CF842F880F880F35
:101C0000480F1091B9061F51133008F010E0C13091
:101C100009F4CCC00CF4A4CFC5300CF0A1CF4D0F0B
:101C20006CE378E78AE00E944E069B01482F8C2FD8
:101C3000CC0F990B0197FC01E25EFC4F6491865E2C
:101C40009C4FAEC0403F08F045C0463E08F076C10C
:101C5000405A433208F084CFD43008F081CF440F8B
:101C6000440F4D0F68E976E78AE00E944E069B011B
:101C7000482F8C2F0C2E000C990B0197FC01EA5E6B
:101C8000FC4F64918E5E9C4FFC01849170E0870153
:101C900090E00E94A00BC13009F062CF8091B9069C
:101CA0008E3019F0803109F0A6C0F6018081883AA3
:101CB00009F4C5C08B3A19F0803A09F051CFE6E833
:101CC000F7E08081853009F455C13596AE16BF0620
:101CD000C1F791C0483F08F40BC14F3F08F040CF17
:101CE000D43008F03DCF485F440F440F4D0F68E6F5
:101CF00076E78AE00E944E069B01482F8C2FCC0F7E
:101D0000990B0197FC01EA50FD4F64918E509D4F55
:101D100047C04150842F880F880F480FD43070F18E
:101D2000429EF001439EF00D1124E152F84F808154
:101D3000882309F415CF8091B9068B3159F48701B6
:101D400021E431EC43E070E060E083E190E00E9448
:101D5000A00B06CF4C5F6DE275E78AE00E944E064D
:101D60009B01482F870170E060E083E190E00E94D2
:101D7000A00B2092B90650929209F2CE4D0F6DE25F
:101D800075E78AE00E944E069B01482F8C2FCC0FEE
:101D9000990B0197FC01EA5DFC4F64918E5D9C4FAD
:101DA000FC01849170E0870190E0D1CF429EF00168
:101DB000439EF00D1124E152F84F80818823E9F011
:101DC0004C5F6CE378E78AE00E944E069B01482F47
:101DD000C701E3E01E9F800D911D11248C0170E06E
:101DE00060E090E080E00E94AD0C8091B9068F51D8
:101DF000FFE1833090F5CD2F90CE6CE378E78AE059
:101E00000E944E069B01482FF4016491F3018491D6
:101E100070E0870190E00E94A00B8091B9068E507F
:101E2000823048F728E93CEC44E063E370E08CE45E
:101E300090E00E94A00BFFE0F093B90691CEE6E897
:101E4000F7E080818A3009F488C03596AE16BF0667
:101E5000C1F7D1CFD43020F0F9E2F093B9068BCF9F
:101E60004150842F880F880F480F4D0F6DE275E7A2
:101E70008AE00E944E069B01482F8C2FCC0F990BB5
:101E80000197FC01E25FFC4F6491865F9C4F88CF15
:101E9000429EF001439EF00D1124E152F84F8081E3
:101EA000882309F45DCEC130D9F00CF459CEC53089
:101EB0000CF056CE4D57440F440F4D0F6BE478E7AE
:101EC0008AE00E944E069B01482F8C2FCC0F990B65
:101ED0000197FC01EA5FFC4F64918E5F9C4F60CFDD
:101EE0008091B9068E50823008F085CFFEE4A4CFF1
:101EF000D43008F035CE80E1840F90918507925060
:101F0000923020F480FD18C081E1840F482F440FE7
:101F1000440F4D0F60E276E78AE00E944E069B0177
:101F2000482F8C2FCC0F990B0197FC01E250FD4FED
:101F3000649186509D4F34CF8FE0E7CFD43008F0C6
:101F40000FCE465E440F440F4D0F60EF75E78AE0F9
:101F5000D1CE67E479E78AE0B5CD87012CE832EA93
:101F600040E064E370E082E190E00E94A00B3092D8
:101F7000B906F6CD870126E23FE840E0F2CF0F93A5
:101F80001F930E94C908882369F00E94280688E0F0
:101F90000E941D06882331F08091BA06833089F4AF
:101FA0008093B9060091670610E022E030E340E03C
:101FB00070E060E090E080E00E94AD0C1F910F9116
:101FC00008958DE3EDCF0F931F930E94C9088823D6
:101FD00051F00E9428068091B906833009F448C068
:101FE000E0F4823081F10091B9060250110BC80172
:101FF000880F991F800F911F00916706080F192FF6
:10200000111D20E030E040E070E060E090E080E012
:102010000E94AD0C1F910F9108958430F1F185302D
:1020200011F780E20E941D06882319F084E0809356
:10203000B90688E00E941D068823A9F21092B8060E
:102040000E9418040DC080E40E941D06882319F028
:1020500083E08093B90688E00E941D06882319F268
:10206000109285098CE08093B9060E940902BBCFCB
:1020700080E20E941D06882319F082E08093B90651
:1020800088E00E941D06882309F4ADCF83E0809389
:10209000BA0688E08093B906A6CF80E40E941D06A8
:1020A000882319F085E08093B90688E00E941D0618
:1020B000882309F498CF0E94EE038EE0EBCF2F9295
:1020C0003F924F925F926F927F928F929F92AF92C8
:1020D000BF92CF92DF92EF92FF920F931F93CF9315
:1020E000DF93C82F462E9091CD07809186094091AD
:1020F000CC0750E0989F400D511D11244170552789
:10210000440F440F80918507480F66E07BE78AE023
:102110000E944E069B01482FD0E08E0170E060E0E7
:1021200084E090E00E94AD0C7AE2E72E71E0F72E99
:10213000ECEFBE2EF5E0AF2EA9E2CA2EA1E0DA2E1A
:102140006B2D84E00E94AA02813059F4F70184913A
:102150008E0126ED33E946E068E170E090E00E94F0
:10216000A00B6B2D84E00E94D9028F3FB1F08A9DB5
:10217000F0011124E452F84F4081493B08F02AC194
:10218000403A08F06DC1483608F019C1443608F0ED
:102190005DC14253463008F444C1B394FFEFEF1AD7
:1021A000FF0A25E0B212CCCFF12CE12C35E0732EE2
:1021B00048E2C42E41E0D42E58E2A52E53E0B52EBD
:1021C00064E2862E63E0962E2DEF622E6E0C662D55
:1021D00083E00E94AA02813069F4F701E15EFE4FBC
:1021E00084918E0124E133E946E069E170E090E0FA
:1021F0000E94A00B662D83E00E94D9028F3FB1F0B0
:10220000879DF0011124E452F84F4081493B08F0CA
:102210003FC1403A08F0A3C1483308F028C1423317
:1022200008F062C141504D3008F475C1FFEFEF1A5C
:10223000FF0A27E0E216F10439F6F12CE12C15E053
:10224000712E07E2C02E01E0D02E87E2A82E83E097
:10225000B82E93E2892E93E0992EBEEF6B2E6E0C72
:10226000662D82E00E94AA02813069F4F701ED5EDA
:10227000FE4F84918E0122E130E946E062E170E098
:1022800090E00E94A00B662D82E00E94D9028F3F51
:10229000B1F0879DF0011124E452F84F4081493B91
:1022A00008F075C1403A08F0D9C1483308F05EC162
:1022B000423308F098C141504D3008F4ABC1FFEFF4
:1022C000EF1AFF0A25E0E216F10439F6F12CE12CB1
:1022D00065E0262E7EE1672E73E0772EEAE1CE2EB2
:1022E000E3E0DE2EF6E2AF2EF3E0BF2EA2E28A2E6E
:1022F000A3E09A2E55245A945E0C652D81E00E942D
:10230000AA028130D9F4F701E55FFE4F8491082ECF
:10231000000C990B552009F4A8C151E08E0120EB67
:102320003CE846E06CE070E0551631F02EE439E808
:1023300046E06CE070E080960E94A00B652D81E085
:102340000E94D902382E8FEF3816C1F0232D30E0CD
:10235000329CF0011124E452F84F4081493B08F0CF
:10236000A2C1403A08F086C2483308F086C1423321
:1023700008F0F8C141504D3008F408C22FEFE21ABE
:10238000F20A53E0E516F10409F0B4CF60E080E012
:102390000E94D9028F3F89F0482F50E025E0829FAC
:1023A000F0011124E452F84F90819B3009F499C256
:1023B00008F067C2913008F06DC28E0195C14D578B
:1023C000423108F0EACE440F440F4D5F6BE478E7EA
:1023D0008AE02FC04F3B21F0B8F4493B09F040C0E0
:1023E000440F440F4D5768E976E78AE00E944E0695
:1023F0009B01482FF7018491F60194918E0168E1C9
:1024000070E0891B990B1FC0433C50F1465E4A3077
:1024100008F0C3CE440F440F4D5F60EF75E78AE0CC
:1024200008C04110BACE440F440F4D5F64E776E711
:102430008AE00E944E069B01482FF70184918E018D
:1024400068E170E090E00E94A00BA7CE4456842F74
:10245000880F880F480F4D5F6CE378E78AE0E9CF7B
:10246000440F440F4D5768E976E78AE0E2CF4436DF
:1024700008F4DCCE483608F468C04D57423108F005
:10248000D5CE440F440F4E5F6BE478E78AE034C04A
:102490004F3B21F0D8F4493B09F061C0440F440F91
:1024A0004E5768E976E78AE00E944E069B01482F66
:1024B000F701E15EFE4F8491F60194918E0169E18E
:1024C00070E0891B990B0E94AD0CB0CE433C08F420
:1024D00046C0465E4A3008F0A9CE440F440F4E5F16
:1024E00060EF75E78AE008C04110A0CE440F440FAA
:1024F000465C64E776E78AE00E944E069B01482F1F
:10250000F701E15EFE4F84918E0169E170E090E099
:102510000E94A00B8BCE842F880F880F480F4E5F30
:102520006DE275E78AE00E944E069B01482FF50197
:102530006491F4018491F701E85EFE4FE49170E04C
:102540008E018E0F9927991FE3CF4456842F880F51
:10255000880F480F4E5F6CE378E78AE0CDCF440FD9
:10256000440F4E5768E976E78AE0C6CF443608F450
:10257000A6CE483608F468C04D57423108F09FCEC9
:10258000440F440F4F5F6BE478E78AE034C04F3B61
:1025900021F0D8F4493B09F061C0440F440F4F5774
:1025A00068E976E78AE00E944E069B01482FF70112
:1025B000ED5EFE4F8491F60194918E0162E170E030
:1025C000891B990B0E94AD0C7ACE433C08F446C09F
:1025D000465E4A3008F073CE440F440F4F5F60EF01
:1025E00075E78AE008C041106ACE440F440F475C8B
:1025F00064E776E78AE00E944E069B01482FF701C8
:10260000ED5EFE4F84918E0162E170E090E00E94E9
:10261000A00B55CE842F880F880F480F4F5F6DE2B7
:1026200075E78AE00E944E069B01482FF5016491F0
:10263000F4018491F701E25FFE4FE49170E08E01B6
:102640008E0F9927991FE3CF4456842F880F880F48
:10265000480F4F5F6CE378E78AE0CDCF440F440F1B
:102660004F5768E976E78AE0C6CF8E012CE832E85A
:1026700046E06CE070E008965FCE443608F47ECE0B
:10268000483608F49EC04D57423108F077CE80910D
:10269000B9068E50823008F071CE51106FCE9EE494
:1026A0009093B9066BCE4F3B29F008F042C0493BEE
:1026B00009F0E0C0405A440F440F68E976E78AE029
:1026C0000E944E069B01482FE52D550CFF0BE45F41
:1026D000FE4F8491E6E2F1E0E4918E0164E070E067
:1026E0008E1B990B0E94AD0C28EA3DE746E070E096
:1026F00060E090E080E00E94A00B2AEE3FE746E019
:1027000070E060E084E690E00E94AD0CDF91CF9134
:102710001F910F91FF90EF90DF90CF90BF90AF90FF
:102720009F908F907F906F905F904F903F902F90F1
:102730000895433C08F49EC0465E4A3008F01ECE21
:10274000440F440F60EF75E78AE00E944E069B013C
:10275000482FF701E55FFE4F84918E0170E060E045
:1027600090E02CC041100ACE4253440F440F64E75E
:1027700076E78AE00E944E069B01482FF701E55F4D
:10278000FE4F84918E0164E070E0EACF842F880FC1
:10279000880F480F6DE275E78AE00E944E069B01A4
:1027A000482FF5016491F4018491F701E85FFE4F31
:1027B000E49170E08E018E0F9927991F0E94A00B63
:1027C000DDCD4456842F880F880F480F1091B9062D
:1027D0001F51133008F010E0229EF001239EF00DEF
:1027E0001124E152F84F8081882309F14C5F6CE39A
:1027F00078E78AE00E944E069B01482FCE01E3E075
:102800001E9F800D911D11248C0170E060E090E00E
:1028100080E00E94AD0C8091B9068F51833008F49E
:10282000ADCDFFE1F093B90630929209A7CD6CE3EC
:1028300078E78AE00E944E069B01482FF3016491DD
:10284000F601849170E08E0190E00E94A00B8091CF
:10285000B9068E50823008F091CD28E93CEC44E076
:1028600063E370E08CE490E00E94A00BFFE0F09343
:10287000B90684CD405A440F440F68E976E78AE0F0
:1028800079CF9E3008F099CD99E29093B906809364
:10289000920993CD249FD001259FB00D1124A15200
:1028A000B84F9C91992309F488CD9AE19093B90689
:1028B0008093920940818FEF840F482F440F440F7B
:1028C000480F4C5F6DE275E78AE00E944E069B015F
:1028D000482F8E0170E060E085E190E00E94A00B3F
:1028E0006CCD249FD001259FB00D1124A152B84F6B
:1028F0009C91992309F461CD9AE19093B906809354
:10290000920940818FEF840F482F440F440F480FE6
:102910004C5F6DE275E78AE00E944E069B01482FEE
:1029200000918507802F90E08C01000F111F080F88
:10293000191F0C0F1D1FCECF0F931F93082F8091CF
:10294000DB079091B906945B933000F58330B0F0CB
:102950008330C1F04091B906445B64E275E78AE0D8
:102960000E944E069B01482F10E070E060E084E179
:1029700090E00E94AD0C1F910F910895602F0E946E
:10298000E30CE8CF802F0E945F10E4CF833038F053
:10299000833089F7802F1F910F910C945F10602F67
:1029A0001F910F910C94E30CDF92EF92FF920F9323
:1029B0001F93CF93DF93D62EE42EF22EC82FD0E0B4
:1029C0000091850710E080918607882309F457C09D
:1029D000C801880F991F080F191F0C0F1D1F2FE624
:1029E00038EB44E070E060E086E690E00E94AD0CD9
:1029F000D11011C08091CF078E0193E0899F000D07
:102A0000111D112420EC3EEE44E06CE070E085E7FF
:102A100090E00E94A00BE11014C01091D3070E9417
:102A20004202810F8E0193E0899F000D111D112438
:102A300020EC3EEE44E066E170E085E790E00E9425
:102A4000A00BF11014C01091D2070E943602810F22
:102A50008E0193E0899F000D111D112420EC3EEEA4
:102A600044E060E270E085E790E00E94A00BDF9117
:102A7000CF911F910F91FF90EF90DF9008950C5F21
:102A80001F4FA6CFAF92BF92CF92DF92EF92FF92ED
:102A90000F931F93CF93DF930E94C908882309F4F3
:102AA0006AC00E94280688E00E941D06882309F457
:102AB0004AC08091B906843131F0853121F18EE030
:102AC0008093B90640C086E18093B90610928E09C2
:102AD00010928D096091900982ED97E00E9499080B
:102AE000E091CE07E150FF0BE252FD4F849190E060
:102AF0009195819591090E94CA0162E084ED97E069
:102B00000E94990820C080918B078111C2C087E183
:102B10008093B90610928E0910928D09E091CE072C
:102B2000E150FF0BE252FD4F849190E09195819529
:102B300091090E94CA0162E084ED97E00E94990821
:102B40008AE00E944E0280E20E941D06882339F02E
:102B50008091B906853119F484E18093B90680E447
:102B60000E941D06882339F08091B906843119F43A
:102B700085E18093B906A0906706B0908B0780919D
:102B8000B906863109F493C0873109F497C0F12C56
:102B9000D0E0C0E0853109F49AC080E0B11001C0F6
:102BA0008E5FCA2CD12C93E0E92E86018E9D000DFC
:102BB000111D112428E23FE440E070E060E090E065
:102BC00080E00E94AD0C8091CE0786018E9D000DA5
:102BD000111D11242AE23FEF44E065E170E08EE32D
:102BE00090E00E94A00B8091900986018E9D000DBF
:102BF000111D11242AE23FEF44E069E270E087E30F
:102C000090E00E94A00BBB2081F080919109860189
:102C10008E9D000D111D11242AE23FEF44E069E270
:102C200070E085E590E00E94A00BFF2039F0FF24C2
:102C3000F39480918F09803308F0F12CDD2331F07B
:102C4000D1E080918F09803308F0D0E0CC2331F0BF
:102C5000C1E080918F09803308F0C0E02F2D4D2F07
:102C60006C2F8A2D0E94D41480918F0990E00196D8
:102C700060E670E00E94E23380938F09DF91CF918C
:102C80001F910F91FF90EF90DF90CF90BF90AF908A
:102C9000089587E18093B90610928E0910928D09EC
:102CA0006091910983ED97E00E94990819CF0E94E5
:102CB000ED08FF24F394D0E0C0E06FCFD0E0C1E096
:102CC000BB2011F0D1E0C0E00E94ED08F12C81E0C2
:102CD00065CFCF92DF92EF92FF920F931F93CF9326
:102CE000DF930E94C908882351F00E94280684E0DF
:102CF0000E941D06882319F089E38093B906F0909D
:102D00006706CF2DD0E08E012AE635E740E070E07F
:102D100060E090E080E00E94AD0C20E040E060E0E8
:102D20008F2D0E94D4148091CE0793E0F92E8F9DB1
:102D3000000D111D112420EC3EEE44E061E170E035
:102D400083E490E00E94A00B8091D0079091D1077E
:102D500024E6C22ED12CB6010E94CE338B01000F87
:102D6000111F060F171F0C0F1D1F26EB33EE44E03B
:102D700069E170E082E290E00E94A00B8091D007B0
:102D80009091D107B6010E94CE338C01000F111F24
:102D9000080F191F0C0F1D1F20EC3EEE44E069E1E7
:102DA00070E086E290E00E94A00BE091CE07E15037
:102DB000FF0BE252FD4F849154E6E52E6E2D0E94EA
:102DC000C2338E018F9D000D111D112426EB33EEB1
:102DD00044E069E170E083E490E00E94A00BE091A0
:102DE000CE07E150FF0BE252FD4F84916E2D0E9401
:102DF000C2338E019F9D000D111D112420EC3EEE6B
:102E000044E069E170E087E490E00E94A00B8091CB
:102E1000CF078E018F9D000D111D112420EC3EEE79
:102E200044E061E270E082E290E00E94A00B8091B9
:102E3000D4078E018F9D000D111D112420EC3EEE54
:102E400044E061E270E083E490E00E94A00B809196
:102E5000D2078E018F9D000D111D112420EC3EEE36
:102E600044E069E270E082E290E00E94A00B0E94E0
:102E700036028E018F9D000D111D112426EB33EEBD
:102E800044E069E270E080E390E00E94A00B809152
:102E9000D3078E018F9D000D111D112420EC3EEEF5
:102EA00044E069E270E083E490E00E94A00B0E949D
:102EB00042028E018F9D000D111D112426EB33EE71
:102EC00044E069E270E081E590E00E94A00BDF91B0
:102ED000CF911F910F91FF90EF90DF90CF900895C9
:102EE0000F931F930E94C908882369F00E94280647
:102EF00088E00E941D06882331F01092B9061092D6
:102F0000B8060E9418040091670620E040E060E0E7
:102F1000802F0E94D41410E02CE83BE64AE070E0D9
:102F200060E090E080E00E94AD0C1F910F91089549
:102F3000FF920F931F93CF93DF93082F8091B906D1
:102F4000843249F010F08932B8F0DF91CF911F91AF
:102F50000F91FF900895409195096EE17BE78AE01B
:102F60000E944E069B01482F10E070E060E090E068
:102F700080E00E94AD0CE9CF409195096AE27BE7C1
:102F80008AE00E944E069B01482FE09195098091AE
:102F90009409FE2EF81AC02FD0E08091B906855210
:102FA0008E0193E0899F000D111D112470E060E0F7
:102FB00090E080E00E94AD0CEF2DF0E0E156F64F7E
:102FC0008081823011F600919609802F90E08C016B
:102FD000000F111F080F191F0C0F1D1F26EE3CE3D9
:102FE0004AE061E270E080E390E00E94A00BADCF88
:102FF000AF92CF92DF92EF92FF920F936901FA01A5
:10300000459125917F01FF0F000BA12C0E94500BD1
:103010000F91FF90EF90DF90CF90AF9008955C9864
:10302000FC012591CF012EBD00000DB407FEFDCFA0
:103030006150B1F75C9A0895FC0101900020E9F716
:103040003197AF01481B590BBC0188E696E00C9400
:103050006A078F929F92AF92BF920F931F93CF9365
:10306000DF93CDB7DEB7A1970FB6F894DEBF0FBEE2
:10307000CDBF19A2423008F44AE08E010F5D1F4F08
:10308000842E912CB12CA12CA50194010E94913386
:10309000E62FB901CA01EA30F4F4E05DD801EE93FD
:1030A0008D01232B242B252B79F790E080E01097BE
:1030B00019F0CD010E941C18A1960FB6F894DEBF3E
:1030C0000FBECDBFDF91CF911F910F91BF90AF90F9
:1030D0009F908F900895E95CE1CFCF93DF930E949A
:1030E0001C18EC0189E291E00E941C188C0F9D1FB6
:1030F000DF91CF9108950C941C18682F70E090E038
:1031000080E04AE00C942918CF93DF938CE291E0A1
:103110000E947B18C6E8D7E088810E947D1880E273
:1031200092E00E947B18259687E0CC3CD807A1F757
:1031300080E292E0DF91CF910C946D18EF92FF92B4
:103140000F931F93CF93C82F87E391E00E947B18C2
:103150008C2F0E947D188BE591E00E947B1806E879
:1031600017E0780180E292E00E947B18F7018081ED
:103170000E947D18F5E0EF0EF11C27ECE21627E027
:10318000F20681F7E5E0CE9FC00111248A57984FDF
:10319000C23068F0CD3040F525E0FC013596DC0109
:1031A00001900D922A95E1F7CF5F0596F3CFFC01D0
:1031B000108285E691E00E947B1880E292E00E94F6
:1031C0007B18F80180810E947D180B5F1F4FF7E08C
:1031D000073C1F0791F78BE291E0CF911F910F9170
:1031E000FF90EF900C946D181092C707E2CF982FC4
:1031F000E6E8F7E080E02081291302C00C949E18D5
:103200008F5F35968E30B9F7089560E081E00E94B7
:10321000D9028F3F81F0482F50E025E0829FF001D6
:103220001124E452F84F9081983A31F09B3A49F0DA
:1032300081EA903A81F008950E94F0028AE00C94AD
:10324000F718249FD001259FB00D1124A052B84F2C
:103250008C918093BA06808385E0F1CFEF92FF9244
:103260000F931F93CF937C018EE691E00E947B1811
:10327000F70180810E947D18F7018081882379F110
:103280008330C0F480918607811129C085E0A6E8CB
:10329000B7E001900D928A95E1F787E891E00E94EE
:1032A0006D180E94841880E0CF911F910F91FF90BC
:1032B000EF900895853098F480918B0781110FC0AD
:1032C00085E0ABE8B7E001900D928A95E1F780EADE
:1032D00091E00E946D180E94841881E0E5CF80E0A3
:1032E0000E946602C82F8D3028F5082F10E00E5F6F
:1032F0001F4F85E0809FD001819FB00D1124AA57F8
:10330000B84FF70101900D928A95E1F789EB91E0B2
:103310000E947B18B801110F880B990B4AE00E949C
:10332000291889E291E00E941C180E94841882E00A
:103330008C0FBACF8FEC91E00E946D180E94841818
:103340008FEFB2CF809192098F3F21F1482F50E04B
:1033500035E0839FC00111248452984FFC012081E5
:103360002E30C8F42C3020F42130A0F02B30B8F4EB
:1033700025E0249FF001259FF00D1124E152F84F24
:1033800010820E942E19809192090E94F0028EE014
:103390008093B90608952456243050F00895349F40
:1033A000F001359FF00D1124E152F84F1082EFCF5C
:1033B0002091B906822F8D51990BBC01349FC00119
:1033C000359F900D11248854994FFC01E85DFE4F04
:1033D0003081895D9E4FFC01361717063CF32F5F45
:1033E0002093B90608950F931F93CF930E94C908A5
:1033F000882309F452C00E94280684E00E941D061A
:10340000882319F08DE28093B90688E00E941D069A
:10341000882361F00E943509FC018081853009F420
:1034200056C08A3009F453C0811159C080E40E940B
:103430001D06882359F010928E0910928D098091F3
:103440008A09843018F48F5F80938A0980E20E9491
:103450001D06882331F010928E0910928D090E946A
:10346000E30180E10E941D06882359F010928E0925
:1034700010928D0980918B09823018F48F5F8093B0
:103480008B0980E80E941D06882339F010928E096E
:1034900010928D098FEF0E94F601C09167060C2FE4
:1034A00010E029E732E343E070E060E090E080E084
:1034B0000E94AD0C60E08C2F0E94D60B20E040E013
:1034C00060E08C2FCF911F910F910C94D4140E9427
:1034D000FD08882369F083E48093B906A7CF809123
:1034E0008A098111F8CF81E00E9466028E3099F737
:1034F00086E4F2CFCF93DF9380E20E941D068823FB
:1035000041F08091850790E003968370992780931E
:10351000850780E40E941D06882341F0809185077D
:1035200090E00196837099278093850780E10E943F
:103530001D068823A1F080918507813009F466C0BB
:1035400090F1823009F47AC0833009F48DC0D7300D
:1035500009F4AAC008F09EC0D33008F43CC080E84B
:103560000E941D06882309F45CC180918507813083
:1035700009F4B4C008F49AC0823009F4CAC0833098
:1035800009F4DDC0C350C73008F04BC1EC2FF0E0A8
:10359000E453F54E0C94F633B51BD91BEE1BEC1B14
:1035A000F91BFB1B141C61E080E00E940D03D82F67
:1035B000813069F68091CC078093D6078091CD0742
:1035C0008093D707909185079093D5078F5F80935D
:1035D000CD070E94680660E08FEF0E94D9028F3FFE
:1035E00009F4BDCF25E0829FF0011124E452F84F89
:1035F00080818D57823108F0B2CF8091850790E0AD
:1036000006968370992780938507A9CF60E08FEF96
:103610000E940D03D82F813009F099CF8091CC07FB
:103620008093D6079091CD079093D7079091850707
:103630009093D50781508093CC07CBCF6FEF80E07C
:103640000E940D03D82F813009F081CF8091CC07E3
:103650008093D6078091CD078093D70790918507F7
:103660009093D5078150B3CF60E081E00E940D03B5
:10367000D82F813009F06BCF8091CC078093D6078B
:103680009091CD079093D707909185079093D50798
:103690008F5FD1CFD83009F462CF88EBD93009F0F1
:1036A0009ACF8093B9065BCF84E2FBCF6FEF80E0C7
:1036B0000E940D03C82F813009F064CF8091CC07A0
:1036C0008093D6078091CD078093D7079091850787
:1036D0009093D50781508093CD0717C060E081E0BB
:1036E0000E940D03C82F813009F04CCF8091CC0788
:1036F0008093D6079091CD079093D7079091850737
:103700009093D5078F5F8093CC07DF91CF910C9476
:10371000680661E080E00E940D03C82F813009F047
:1037200031CF8091CC078093D6078091CD078093CD
:10373000D707909185079093D5078F5FCCCF60E036
:103740008FEF0E940D03C82F813009F01BCF8091AD
:10375000CC078093D6079091CD079093D70790918F
:1037600085079093D5078150CECF60E081E00E941D
:10377000D9028F3FD1F095E0899F90011124F90182
:10378000E452F84FE081E456FF0BE652FD4FE4911E
:103790002854394FD901A85DBE4FEC93295D3E4FA7
:1037A00091E0F9019083809392098FE18093B906AB
:1037B00038C060E081E00E94D9028F3F91F125E09E
:1037C000829FF0011124E152F84F80818F3F49F12F
:1037D000DF91CF910C9430078AE2E8CF60E081E07E
:1037E0000E94D9028F3FE9F095E0899FF0011124F2
:1037F000EACF84E2DBCF60E081E00E94D9028F3F14
:1038000081F0E5E08E9FC0011124FC01E052F84FE9
:1038100020812093BA062093B9068452984FFC0168
:103820002083DF91CF91089588EBC0CFCF930E9482
:10383000C908882309F450C00E94280688E00E9425
:103840001D06882301F18091B9068F3009F45DC00F
:103850008031C9F460E081E00E94D9028F3F99F085
:1038600095E0899FF0011124E452F84F8081883A55
:1038700029F08B3A09F444C0803A29F40E940519D2
:103880008EE08093B90684E00E941D06882359F0DB
:103890008091B90692EF980F933028F48093BA067E
:1038A0008DE28093B9068091B906845B833008F07D
:1038B00069C080E80E941D06882371F060E081E005
:1038C0000E94D9028F3F41F0809185098F5F8093DC
:1038D00085098CE08093B906C09167068091B9068E
:1038E000813108F052C08F3008F053C08E3009F497
:1038F00055C020E040E060E08C2FCF910C94D414B0
:103900000E9405198091BA06BCCF81E00E94660230
:103910008E3029F481E00E94D4088BE1B2CF60E0C0
:1039200081E00E94D9028F3F09F4ADCF482F50E0CB
:1039300025E0829FF0011124E452F84FE081E1304C
:1039400008F4A1CFEE30D8F08CE98E0F843008F067
:103950009ACFE456FF0BE652FD4FE491249FC0013D
:10396000259F900D11248854994FDC01A85DBE4F0E
:10397000EC93895D9E4F21E0FC01208384CF0E945F
:10398000A21981CF0E947A1AA7CF845B833008F0F6
:10399000B0CF60E08C2F0E949C14ABCF60E08C2FE6
:1039A0000E949C14E091CE07E150FF0BE252FD4FC4
:1039B000E4918091D0079091D107E817190611F092
:1039C00008F097CF82E18093B90693CF8F929F92B0
:1039D000AF92BF92CF92DF92EF92FF92E82EF090DB
:1039E000D2070E9436028F0D6E2D0E94C23385369B
:1039F00008F083E6C82ED12C8FEFC81AD80A4601EA
:103A00000D2C000CAA08BB08D594C7940D2C000CF3
:103A1000EE08FF08C814D904EA04FB048CF48C18DF
:103A20009D08AE08BF0841F00E940733A50194012C
:103A30000E945F334B015C01C80CD91CEA1CFB1CC3
:103A40008C2DFF90EF90DF90CF90BF90AF909F9024
:103A50008F9008958F929F92AF92BF92CF92DF92F4
:103A6000EF92FF928150990B84559F4FFC018491F6
:103A7000082E000C990B70E00E94E2336B01FFEFFF
:103A8000CF1ADF0A46010D2C000CAA08BB08D7FE8E
:103A900003C08FEFC81AD80AD594C7940D2C000C18
:103AA000EE08FF08C814D904EA04FB048CF48C184F
:103AB0009D08AE08BF0841F00E940733A50194019C
:103AC0000E945F334B015C01C80CD91CEA1CFB1C33
:103AD000B090D3070E9442029C2D981B892F8B190E
:103AE000181664F485360CF083E6FF90EF90DF90B3
:103AF000CF90BF90AF909F908F90089581E0F5CFC9
:103B00006F927F928F929F92AF92BF92CF92DF92ED
:103B1000EF92FF920F931F93CF93DF930E94C908F8
:103B2000882309F42CC00E942806C091B906E0EB56
:103B3000EC0FE33120F5F0E0E056F24E0C94F63352
:103B4000B31D5F1EBF1D671EBF1D671E701E701E4A
:103B5000701E701EBF1DBF1DD11EBF1DE81E671E3B
:103B6000D11EF51E081F88E00E941D06882339F02B
:103B700082E58093B90610928E0910928D0960E05B
:103B800081E00E94D9028F3F09F4F6C2C091670616
:103B9000A82EB12C55E0952E899DC0011124FC0161
:103BA000E452F84F6F01D081DD578091B90682361B
:103BB00009F466C060E08C2F0E949C14EC2EF12C5E
:103BC000870129E135EA42E06CEF7FEF83E290E084
:103BD0000E94AD0C2BE036EA42E067E370E08EE035
:103BE00090E00E94A00B9A9CF0019B9CF00D112488
:103BF000E152F84F80818823D9F04D2F440F440FB4
:103C00006BE478E78AE00E944E063B01882E4D2F38
:103C100050E0FA01EF52FD4F849148535D4FFA0195
:103C20004491642F70E0482D930190E00E94A00B16
:103C300085E08A9D90018B9D300D11242854394FC9
:103C4000F901E95DFE4F8081FCE08F9FC0011124E6
:103C5000285D3E4FF901608170E00E94E2337727D2
:103C60008B01000F111F060F171F0E0D1F1D2EEDCC
:103C700037E542E064E070E081E390E00E94AD0C43
:103C80002091B906E0EBE20FE33108F075C2F0E0F5
:103C9000E45BF14E0C94F6332B1F6C1F9B1FB01F7F
:103CA0009B1FB01F53205320532053205320DB2051
:103CB000EE20E621F4213322D1228423F52388E06B
:103CC0000E941D06882309F45ACF84E552CF88E06C
:103CD0000E941D06882309F452CF0E9471094FCF1C
:103CE00084E00E941D06882329F0C093BA068DE265
:103CF0008093B90688E00E941D06882319F18091FF
:103D0000B906863549F4C091D2070E9436028C0F5D
:103D100019F08BE58093B9068091B906873539F49F
:103D200080918B07882319F08DE58093B9068091E7
:103D3000B906893539F481E58093B90610928E0968
:103D400010928D0980E80E941D06882339F0809129
:103D5000B9068735E1F010F08A35A8F080E10E94BD
:103D60001D06882309F40BCF8091B906863589F0AA
:103D700008F405CF893508F002CF89E50FC087E543
:103D80008093B906EBCF80918B078111F8CF86E540
:103D9000F7CF80918B07882381F387E58093B9065D
:103DA000EECE88E00E941D06C82F60E081E00E94F0
:103DB000D902CC2309F4E3CE8F3F09F4DDC125E01D
:103DC000829FC00111248452984F0E944809D7CE87
:103DD00088E00E941D06882309F4D1CE80919109C4
:103DE00081950E944E028FE5C4CE88E00E941D0698
:103DF000882309F4C4CE8EE08093B90660E081E0A8
:103E00000E94D9028F3F09F4B7C10E94F002B7CED9
:103E100088E00E941D06882349F08091B806882317
:103E200071F00E94EE038EE08093B90684E00E9458
:103E30001D06882309F4A3CE1092B906A0CE1092D5
:103E400085090E9409028CE08093B9061092B80699
:103E50000E941804EBCF80918D0990918E090C2F50
:103E600010E026E037E642E08038910560F4F60184
:103E700080818E57880FF3E08F9F000D111D112454
:103E800024EB39E542E068E370E083E190E00E94D2
:103E9000AD0C80918D0990918E09019690938E09B9
:103EA00080938D098F3F910519F482E58093B906BF
:103EB00020E040E060E08C2FDF91CF911F910F91C7
:103EC000FF90EF90DF90CF90BF90AF909F908F903A
:103ED0007F906F900C94D4140C2F10E080918D097A
:103EE00090918E098038910500F5F6018081880F48
:103EF0008B5FF3E08F9F000D111D112424EB39E53A
:103F000042E068E370E083E190E00E94AD0C8091B4
:103F10008D0990918E09019690938E0980938D0959
:103F20008F3F910529F684E5C1CF065D1F4F26E03E
:103F300037E642E0E6CF61E08D2F0E942A1D809394
:103F4000900981950E944E0220E040E060E08C2FB5
:103F50000E94D4148091B9068F5F8093B90639C14D
:103F6000EC2EF12C8091900987018A300CF067C00B
:103F70000D5F1F4F26E037E642E068E370E083E123
:103F800090E00E94AD0C870123E833E742E06EE049
:103F900070E088E090E00E94A00B80919009D3E04F
:103FA0008D9F000D111D112426EB33EE44E06DE1D1
:103FB00070E08DE190E00E94A00B80919009870154
:103FC0008D9F000D111D112420E033EE44E069E3C4
:103FD00070E085E390E00E94A00B61E080918F0982
:103FE000803308F060E020E040E08C2F0E94D41481
:103FF00080918F0990E0019660E670E00E94E233C4
:1040000080938F0980918D0990918E0901969093EC
:104010008E0980938D098115924009F0ADC0DF9122
:10402000CF911F910F91FF90EF90DF90CF90BF90B5
:10403000AF909F908F907F906F900C9471090A5F62
:104040001F4F26E037E642E068E370E083E190E04E
:104050000E94AD0C870123E833E742E06EE070E098
:1040600088E090E00E94A00B80919009D3E08D9FA2
:10407000000D111D112420EC3EEE44E06DE170E0D6
:104080008BE190E00E94A00B8091900987018D9FA9
:10409000000D111D11242AE23FEF44E069E370E0B6
:1040A00084E390E098CFC0908607D0908B07DAEA3F
:1040B000D20F80918D0990918E09EC2EF12C0D2F4D
:1040C00010E08038910508F066C0019690938E0943
:1040D00080938D0987010B5E1F4F26E037E642E093
:1040E00068E370E083E190E00E94AD0C41E0C11014
:1040F00001C045E067EB78E78AE00E944E06870141
:104100009B01482F66E070E08BE590E00E94A00BD9
:1041100042E0D11001C040E067EB78E78AE00E94FE
:104120004E0687019B01482F64E170E08BE590E02B
:104130000E94A00B40E067EB78E78AE00E944E0601
:104140009B01482F62E270E08BE590E00E94A00B9B
:1041500020E040E060E08C2F0E94D41433E0D39F35
:10416000000D111D112422EA3DEC44E070E060E0F6
:1041700084E590E00E94A00BDF91CF911F910F91F9
:10418000FF90EF90DF90CF90BF90AF909F908F9077
:104190007F906F900895293521F48701085E1F4FA5
:1041A0009CCFC80109968C01000F111F080F191F21
:1041B0000E0D1F1D92CF81E00E94E61C8093900996
:1041C0008CE58093B90620E040E060E08C2F0E94EF
:1041D000D41410928E0910928D09CECF209190099F
:1041E000EC2EF12C80918607882309F491C0870179
:1041F0002A3008F059C0075F1F4F26E037E642E03B
:1042000068E370E083E190E00E94AD0C870125E354
:1042100038E742E067E070E08EE290E00E94A00B99
:1042200080919009D3E08D9F000D111D112426EB84
:1042300033EE44E06BE270E087E390E00E94A00B75
:104240008091900987018D9F000D111D112420E0A0
:1042500033EE44E069E370E085E390E00E94A00B58
:1042600020E040E060E08C2F0E94D41480918D0902
:1042700090918E09019690938E0980938D098115F6
:10428000924009F079CFC601DF91CF911F910F9134
:10429000FF90EF90DF90CF90BF90AF909F908F9066
:1042A0007F906F900C944809045F1F4F26E037E61B
:1042B00042E068E370E083E190E00E94AD0C87018A
:1042C00025E338E742E067E070E08EE290E00E948C
:1042D000A00B80919009D3E08D9F000D111D11243A
:1042E00020EC3EEE44E06BE270E085E390E00E945B
:1042F000A00B8091900987018D9F000D111D112445
:104300002AE23FEF44E069E370E084E390E0A6CF67
:1043100080918D0990918E0960E08039910528F493
:1043200060E370E00E94CE336170D3E057016D9F6F
:10433000A00CB11C112487012A3020F5075F1F4F04
:1043400026E037E642E068E370E083E190E00E9417
:10435000AD0C85012BE13FE742E067E170E080E1D1
:1043600090E00E94A00B8091900987018D9F000D25
:10437000111D112426EB33EE44E06BE270E086E37E
:1043800090E05CCF045F1F4F26E037E642E068E331
:1043900070E083E190E00E94AD0C85012BE13FE7E6
:1043A00042E067E170E080E190E00E94A00B809124
:1043B000900987018D9F000D111D112420EC3EEE08
:1043C00044E06BE270E084E390E091CF82E00E94F1
:1043D000E61C182F62E08D2F0E942A1D1093900971
:1043E000809391098EE562CDD0918B07D350EC2E4E
:1043F000F12C8701025E1F4F26E037E642E068E3BA
:1044000070E083E190E00E94AD0C870183E0D89FCB
:10441000000D111D112423EF37EA42E068E170E03E
:1044200080E190E00E94A00B61E080918F098033D1
:1044300008F060E020E040E08C2F0E94D4148091CE
:104440008D0990918E09019690938E0980938D0924
:104450008115914009F090CE8091910981950E943B
:104460004E028FE57ACDEC2EF12C809190098A30A6
:1044700008F062C0D0918B0787010D5F1F4F26E0C7
:1044800037E642E068E370E083E190E00E94AD0C23
:104490008DEF8D0FD3E087018D9F000D111D11242D
:1044A00025E930EB42E064E070E080E190E00E94BA
:1044B000A00B8091910987018D9F000D111D112482
:1044C00026EB33EE44E060E170E085E290E00E948C
:1044D000A00B8091910987018D9F000D111D112462
:1044E00020E033EE44E069E370E085E390E00E9471
:1044F000A00B61E080918F09803308F060E020E03C
:1045000040E08C2F0E94D41480918F0990E0019696
:1045100060E670E00E94E23380938F0980918D09FC
:1045200090918E09019690938E0980938D09811543
:10453000914009F021CE73CD87010A5F1F4F26E01D
:1045400037E642E068E370E083E190E00E94AD0C62
:10455000870125E930EB42E064E070E080E190E023
:104560000E94A00B80919109D3E08D9F000D111D39
:10457000112420EC3EEE44E060E170E083E290E044
:104580000E94A00B8091910987018D9F000D111D44
:1045900011242AE23FEF44E069E370E084E390E015
:1045A000A6CF80918B0790918607992309F476C056
:1045B00092E0EC2EF12C8350890FD3E067018D9FA0
:1045C000C00CD11C1124809190098701882309F423
:1045D00067C0075F1F4F26E037E642E068E370E000
:1045E00083E190E00E94AD0C86012FEA3FEB42E0B0
:1045F00060E170E080E190E00E94A00B8091900962
:1046000087018D9F000D111D112426EB33EE44E030
:1046100067E170E082E590E00E94A00B8091900934
:1046200087018D9F000D111D112420E033EE44E021
:1046300069E370E085E390E00E94A00B61E0809167
:104640008F09803308F060E020E040E08C2F0E946A
:10465000D41480918F0990E0019660E670E00E948A
:10466000E23380938F0980918D0990918E09019694
:1046700090938E0980938D098115914009F07CCD2E
:1046800060E081E00E94D9028F3F09F475CD35E0EA
:10469000839FC00111248452984FF6CD90E089CFBA
:1046A000045F1F4F26E037E642E068E370E083E1F5
:1046B00090E00E94AD0C86012FEA3FEB42E060E102
:1046C00070E080E190E00E94A00B8091900987014A
:1046D0008D9F000D111D112420EC3EEE44E067E19A
:1046E00070E080E590E00E94A00B80919009870126
:1046F0008D9F000D111D11242AE23FEF44E069E374
:1047000070E084E390E098CFEC2EF12C809190093A
:1047100087018A30B0F50C5D1F4F26E037E642E096
:1047200068E370E083E190E00E94AD0C8091900915
:10473000D3E087018D9F000D111D112420E033EE81
:1047400044E069E370E088E490E00E94A00B8701F8
:104750002DEB3DE842E061E170E082E290E00E94F2
:10476000A00B809190098D9F000D111D112426EB47
:1047700033EE44E06DE170E083E390E00E94A00B33
:1047800097CB095D1F4F26E037E642E068E370E013
:1047900083E190E00E94AD0C80919009D3E0870105
:1047A0008D9F000D111D11242AE23FEF44E069E3C3
:1047B00070E085E490E00E94A00B87012DEB3DE8BE
:1047C00042E061E170E082E290E00E94A00B809103
:1047D00090098D9F000D111D112420EC3EEE44E048
:1047E0006DE170E080E390E0C9CF0091B806802FC2
:1047F00090E08C01000F111F080F191F0C0F111DE5
:1048000027EF31E942E070E060E090E080E00E9454
:10481000AD0C4ECB1F920F920FB60F9211248F93B7
:104820009F938091E1009091E100937F9093E1004C
:1048300083FF0FC01092E90091E09093EB0010927B
:10484000EC0092E39093ED001092640698E0909350
:10485000F00082FF22C093E09093E9009091F20073
:10486000992319F09AE39093E800909150029923CC
:1048700041F090915002915090935002911101C0DB
:104880005D9A90916306992341F09091630691504F
:1048900090936306911101C0289A84FF18C08091FB
:1048A000E2008E7E81608093E2008091E1008F7E45
:1048B0008093E100809151028E7E8061809351024D
:1048C0009F918F910F900FBE0F901F90189580FFB2
:1048D000F7CF8091E2008E7E80618093E20080912C
:1048E000E1008E7E8093E100809151028E7E816096
:1048F000E5CF1F920F920FB60F921124CF92DF9245
:10490000EF92FF920F931F932F933F934F935F93D9
:104910006F937F938F939F93AF93BF93EF93FF9387
:10492000CF93DF93CDB7DEB76C97DEBFCDBF1092CC
:10493000E9008091E80083FF25C068E0CE0145963C
:104940000E948F0582EF8093E8008D8987FF39C030
:104950009091E80090FFFCCF982F907609F034C139
:104960009E894F89588D2F89F88C911131C08038DC
:1049700061F5809152028093F1001092F1008EEF68
:104980008093E8006C960FB6F894DEBF0FBECDBFE3
:10499000DF91CF91FF91EF91BF91AF919F918F9157
:1049A0007F916F915F914F913F912F911F910F9147
:1049B000FF90EF90DF90CF900F900FBE0F901F9061
:1049C00018959EEF9093E800C7CF1092F100D5CFD5
:1049D000913059F48111D3CF4130510581F6809146
:1049E00052028D7F80935202CACF933049F48111D5
:1049F000C6CF4130510519F6809152028260F2CF44
:104A0000953041F48091E80080FFFCCF206820932E
:104A1000E300B5CF963009F0A9C00B8D1C8D22E0C4
:104A20001092E90010924E0210924D02F2122EC026
:104A300010924C0210924B020E945E051F8299E078
:104A40009983FA8291E09E8390EA98879AEF9987FA
:104A500020914D0230914E02275F3F4F3C832B83C4
:104A60008D831092E90010924E0210924D02109325
:104A70004C0200934B0249E050E0BE016F5F7F4F54
:104A800080E00E9438050E945E0579CF10934C02A9
:104A900000934B020E94C304DC0112960D911C91FD
:104AA0000115110509F451C1D801ED91FC91048063
:104AB000F581E02DBE016B5E7F4FC801099500971F
:104AC00009F03EC1F80100851185EACFF3E0FF123D
:104AD0000EC08F89882309F440C0823061F440E819
:104AE00067E087E991E00E940505811148CF81E2E6
:104AF0008093EB0047CF813029F440E86BE08BE8EE
:104B000091E0F1CF833099F70E94C304DC01129643
:104B1000ED90FC908E010F5F1F4F6801E114F104CE
:104B200079F0D701ED91FC910680F781E02DB80175
:104B3000C7010995080F111DF701E084F184EECF3C
:104B4000D8011C92F60101900020E9F73197BF01CE
:104B50006C197D0940E0C601C6CF65E771E0FB0135
:104B6000449150E080E80E94380509CF973009F45D
:104B7000BECF983021F481E08093F10000CF9930CE
:104B800009F0FDCE837009F0B2CFE1E1F1E081E000
:104B900031E096E32191222371F08093E900309374
:104BA000EB00DF0111972C912093EC009093ED0026
:104BB0008F5F873079F78EE78093EA001092EA00E2
:104BC0008F8980936406DBCE8B8D9C8D1092E900DB
:104BD00010924E0210924D0290934C0280934B0221
:104BE000898D811192C08E899D89913A49F48132D3
:104BF00009F07DCF47E050E064E071E080E0B3CFA2
:104C0000913209F074CF833269F48F89988DB0E0C6
:104C1000A0E08093000190930101A0930201B09362
:104C20000301ADCE803269F48091E80082FFFCCFB1
:104C300067E084E091E00E948F058BEF8093E800AD
:104C40009ECE823209F09BCE8F8980930B01EEEFCE
:104C5000FFE7859194918B3F9C4D51F1E0E0F8E0A6
:104C60008091040190910501A0910601B091070186
:104C7000803B9440A105B105F1F480910B0180FDCA
:104C80001AC0EE3F8AE0F80789F587E797E7918336
:104C900080838091600080934F0288E19BE00FB693
:104CA000F894A895809360000FBE9093600067CE43
:104CB000EEEFFAE0D5CF808191818737974709F0F1
:104CC0005ECEA8958091600088618093600080919D
:104CD0004F0280936000EE3F2AE0F20789F0809156
:104CE000FE0A9091FF0A9183808349CE8081918151
:104CF0008737980751F29093FF0A8093FE0AC5CF39
:104D00001092FF0A1092FE0A3ACE0E94C304DC0100
:104D100012960D911C910115110509F4E8CED801E8
:104D2000ED91FC910190F081E02DBE016B5E7F4F13
:104D3000C8010995811123CEF80100851185EBCFBB
:104D4000181619060CF41BCED2CEF1E0FF12BECE1F
:104D500069E771E004CF0F920FB68F939F93EF93A3
:104D6000FF93809140028D5F8D3708F08D578093BF
:104D70004002E1E4F2E080818E4F808391819F4F79
:104D8000918382818F4F828383818F4F8383E5E478
:104D9000F2E080818F5F808381818F4F8183828168
:104DA0008F4F828383818F4F83838FB18F6066990A
:104DB0001C9B88278F3681F480913F02981B963088
:104DC00068F0E0E0F8E087E78083818388E1809302
:104DD0006000F0936000FFCF90933F02FF91EF914E
:104DE0009F918F910FBE0F9018951F920F920FB643
:104DF0000F9211242F933F934F935F936F937F9361
:104E00008F939F93AF93BF93EF93FF93E7E3F2E00A
:104E100080819181A281B3810197A109B10918F420
:104E20000E9417080BC080839183A283B38384817F
:104E3000882321F4369A85818111379AFF91EF9169
:104E4000BF91AF919F918F917F916F915F914F91A2
:104E50003F912F910F900FBE0F901F9018951F92AA
:104E60000F920FB60F9211248F939F9382E496E0D6
:104E7000909389008093880081E0809356069F91EB
:104E80008F910F900FBE0F901F90189510926B0688
:104E900010926A0688EE93E0A0E0B0E080936C0682
:104EA00090936D06A0936E06B0936F068BE191E030
:104EB00090936906809368068FEF9FEF9093750635
:104EC000809374061092B9061092BA06E1E6F7E0F4
:104ED00084E2DF011D928A95E9F781E080938507DE
:104EE000E6E8F7E01082118212823596B7E0EC3CDA
:104EF000FB07C1F782E08093CC0788E08093CD0761
:104F000081E08093CE0794E19093CF071092D10770
:104F10001092D0078093D2071092D3079093D407B2
:104F20008093D5071092D6071092D7078093D807A1
:104F30001092D9071092DA071092DB07ECEDF7E038
:104F400085E899E010821182128235968E179F07AC
:104F5000C9F710928509109286091092870910925C
:104F600088091092890981E080938A0910928B093F
:104F700080938C091092A4090895CDB7DEB72997C4
:104F8000DEBFCDBF789483E084BD83E085BD81E042
:104F900080936E00E1E8F0E083E08083E0E881E068
:104FA0008083E1E983E08083E0E981E08083E1ECD4
:104FB00087E08083E3EC81E08083E0EC82E0808323
:104FC000E2EC81E08083EAE787E080838068808389
:104FD0001092640610925202109251028091D700F2
:104FE00081608093D70080EA8093D80089B5806182
:104FF00089BD89B5826089BD09B400FEFDCF81E01D
:1050000090E00E9452078091D8008F7C806180934D
:10501000D8008091E000807F8093E0008091E100E3
:105020008E7E8093E1008DE08093E200559A209A75
:1050300081EC80937C0081EF85B987EE84B982E3AF
:105040008BB982EF8AB9769A6E9880EF81BB10BADD
:1050500080E58CBD81E08DBD0E9466075F9A0E944D
:1050600066075C98EFE9F1E085918EBD00000DB414
:1050700007FEFDCFEC3AC1F75C9A81E880936400AB
:1050800081E08093650062E08CEA91E00E940F1855
:1050900066E08EEA91E00E940F189FB7F89422E430
:1050A00036E0309389002093880083E0809380006D
:1050B0008BE1809381001092850010928400809192
:1050C0006F00826080936F009FBF5E9AE4E1F0E022
:1050D00088E695EF259135915591459128513549AF
:1050E00009F4CA0180935302909354028BEA0E9400
:1050F0004A075E9A809164008E7F8093640080915D
:105100007A00806480937A0080917A0086FDFCCFDB
:1051100000917800109179000E94ED07AB01BC016D
:10512000C801B0E0A0E0DC01992788278C019D012F
:10513000040F151F261F371FC901B80120916400F5
:10514000216020936400611571058105910511F0BE
:105150000E9456335E9AE4E1F0E088E695EF60EF56
:105160007FEF25913591559145912851354909F4A5
:10517000CA01809353029093540225913591559121
:1051800045912851354909F4BA0160936506709339
:1051900066068BEA0E944A070E94EE031092B90647
:1051A0001092850935E0F32E5E98F89480915606AA
:1051B000811109C083B7816083BF7894889583B7D4
:1051C0008E7F83BFF2CF109256067894E0906706E8
:1051D0002EEFD22EDE0C1DEF1D1508F447C001E0A6
:1051E0001FEF2FE741E0B80185ED95E00E94AF0881
:1051F00062E086EB91E00E940F182FEF47E0B801C4
:1052000085E592E00E94AF0862E084EB91E00E94A5
:105210000F182DEFE3942D1530F0809155068F5F18
:1052200080935506E12CE09267065E9A8091B9065C
:10523000803408F092C08C3210F00C948D318131A2
:1052400010F58E3008F04FC2883009F403C188F49D
:10525000882309F4F3C0873008F4F7C080E090E0B9
:10526000892B09F4A1CF0E9400009ECF01E010E03D
:10527000B8CF8C3009F4F2C008F05EC1893071F704
:105280000E94BF0FEBCF8C3160F48A3108F07CC6EE
:10529000823109F409C110F3893100F70E944215E7
:1052A000DDCF8F31D8F2823208F46EC68452873057
:1052B000A8F60E94C908882309F10E94280688E000
:1052C0000E941D06882359F08091B906893208F0A2
:1052D000ADC6853208F029C7843209F4AFC684E030
:1052E0000E941D06882351F08091B906893209F485
:1052F0009EC708F07EC7843208F082C7B090670668
:105300002091B906293211F40C947B3108F09CC726
:10531000243208F4A3CF8091950990919409891BB8
:1053200090E08854994FFC01E951FD4F30813230B3
:1053300009F0C4C725528D519D4FDC018C91281373
:10534000BDC780919609833008F0AAC78B2D0E94B3
:10535000981720E040E060E0CAC78E3411F40C9446
:10536000A83208F049C0883460F4833408F07DC363
:10537000803409F472C3823409F070CF0E94F319AB
:105380006DCF8B3408F40BC58D3408F067CF0E94C5
:10539000C908882309F43EC50E94280684E00E94BB
:1053A0001D06882361F00E943509FC0180810E945E
:1053B000FD08882309F45DC585E48093B90688E07B
:1053C0000E941D06882341F08091B9068B3409F4B0
:1053D00052C58C3409F4CCC580E40E941D06882394
:1053E00019F08CE48093B90680E20E941D068823A0
:1053F00009F410C58BE40CC5873BA0F4843B08F08E
:1054000072C1853611F40C94B63230F4843608F04B
:1054100025CF0E94801D22CF863609F01FCF0E9423
:1054200069161CCF883B11F40C94B13208F45EC1AC
:10543000893B09F013CF0E94701710CF8091B806F6
:10544000882331F084E08093B9060E94E30F06CFF1
:1054500082E0F9CF89E08093B90612CF0E94C90893
:10546000882351F00E94280688E00E941D068823A8
:1054700019F08DE08093B906E090670640918509A8
:105480006EE175E78AE00E944E069B01482F0E2DC3
:1054900010E070E060E090E080E00E94AD0C20E061
:1054A00040E060E08E2DD6C2E091CE07E150FF0BC8
:1054B000E854FE4F049110E00F5F1F4F4801012E8A
:1054C000000CAA08BB0881E090E0A0E0B0E0013049
:1054D000110579F00E940733A5019401215031098B
:1054E000410951090E945F33DC01CB010196A11DE6
:1054F000B11D8093900981E090E0A0E0B0E0013020
:10550000110579F00E940733A5019401215031095A
:10551000410951090E945F33DC01CB010196A11DB5
:10552000B11D8093910984E18093B9068091CE07E3
:105530008F5F8093CE07B2CE8FEF80939209409118
:10554000850965E677E88AE00E944E063B01882ED1
:105550000E945C060E940703809385090E9407034E
:105560008093DB070E940703809360070E94070374
:10557000809386090E940703809387090E9407038E
:105580008093CC070E9407038093CD070E940703F6
:10559000809385070E940703809393090E94070365
:1055A000809394098093950907E919E09BE9C92E36
:1055B00099E0D92E0E940703D8018D938D010E9496
:1055C0000703F80183831782C016D10699F701E615
:1055D00017E085E8C82E87E0D82E0E940703D8017F
:1055E0008C930E940703F80181830E940703D8016E
:1055F00012968C930E940703F80185830E9407038B
:10560000D80113968C930E940703F80184830A5FE4
:105610001F4FC016D10609F70E9412040E946806A7
:10562000BCEDCB2EB7E0DB2EF6011082359609E0FB
:10563000E538F007D1F76091860980918709689F66
:10564000B0011124072E000C880B6A5C7F4F8F4F2E
:10565000660D771D881D0E945C060E940703E12CE1
:10566000882321F1EF9C8001112498012452384FA6
:105670005901D9018C930E940703F50181830E948F
:105680000703D50112968C930E9407030854194F03
:10569000F801E95DFE4F80830E940703085D1E4FFD
:1056A000F80180830E940703E394DACF0E9412047A
:1056B000D601EC9183E88E0F823150F4EE57F0E082
:1056C000E453FE4FE4911396EC9313971496EC93E6
:1056D000B5E0CB0ED11CE5E8CE16E9E0DE0641F7D9
:1056E0008EE08093B9060E94161CB8CD0E94C908AE
:1056F0008823A1F00E94280688E00E941D068823C6
:1057000019F08EE28093B90684E00E941D0688237A
:1057100019F08EE28093B9060E947A1AF09167061A
:10572000F9878FEE91E00E946D18ACEDCA2EA7E0CC
:10573000DA2E8601E12C88E092E00E947B188E2D03
:105740000E947D188EE092E00E947B18D8018C9117
:105750000E947D188BE192E00E947B18F801818104
:105760000E947D1882E292E00E947B18D801129676
:105770008C910E947D1889E291E00E941C18F8012A
:105780008081882331F0E3940B5F1F4FF5E5EF1222
:10579000D2CF9091CD072091860930E08091890980
:1057A000943008F0B3C09DEF980F192F110F190F07
:1057B000110F145E4091CC0790918809483008F091
:1057C000B1C029EF290FE22EEE0CE20EEE0C24E31D
:1057D000E20E292F30E0225F3F4F712CD6010C9151
:1057E00011966C90119712963C90002309F4ABC06F
:1057F000381630F0691620F06216130641F03CF0BE
:105800007394B5E0CB0ED11CE5E57E12E7CF1A50BC
:1058100028EB36E038872F83B12CA12C3985832ED5
:10582000912CEE82D12CC12C8AE0810F482E880F5A
:105830005508809186098C151D0409F00CF486C06A
:10584000809187098A151B0409F00CF47FC0EF8151
:10585000F885EC0DFD1D838190918809292F30E09A
:105860004091CC0750E0421B530B4C155D0559F499
:105870004091CD0750918909451B550B2224239453
:105880004A155B0509F0212C4FEF741609F480C00E
:10589000A9014C0D5D1D6416150609F079C04091F3
:1058A00089094A0D5B2D511D3416150609F070C08B
:1058B000083608F053C0043608F05AC00E3008F01D
:1058C00047C00C3030F4013008F446C08EEF0B3086
:1058D00008F48AEF73947F9CF0011124E452F84F8E
:1058E000225F3F4FA4E5A71508F452C000816180F4
:1058F0003280002309F44AC0961528F46216130674
:1059000009F00CF445C073943596ECCFA9014650CC
:1059100051091AE0941715060CF04CCF082F091BFB
:10592000902F43CF27503109F4E0EF2E4217130692
:105930000CF04FCF292F241BE22EEE0CE20EEE0CC2
:1059400034E3E30E46CF77247A9461CF81E084CFAD
:105950008EEC800F8630C0F080E0BCCF023A50F46D
:105960008DEF003A08F0B6CF83E8800F8231A0F7C0
:105970008BEFB0CF083A80F38CEF033C08F4AACF4A
:105980008AE1800F8A3040F789EFA4CF77247A9498
:105990009E819350963508F51532F8F4882399F0D6
:1059A00097E0980F9630C8F4885F9401E3E08E9FEB
:1059B000200D311D112443E352E0B201FE818F2FEF
:1059C000FF0F990B08C0940143E352E0B201BE817E
:1059D0008B2FBB0F990B0E94F8172220A1F020916A
:1059E0008507822F90E09C01220F331F280F391F5B
:1059F000280D391D4DED51E0B201AE818A2FAA0F5D
:105A0000990B0E94F817BFEFCB1ADB0AEE81EA5F11
:105A1000EE83FFE0CF16D10409F00BCF2FEFA21ACF
:105A2000B20A1A5F8F8198850F9698878F839BE0C3
:105A3000A916B10409F0F5CE840124E93FE045E060
:105A400070E060E090E080E00E94A00B20E040E089
:105A500060E089850E94D41401CC10928E091092C6
:105A60008D0982E48093B90689CC0E94C9088823F5
:105A700009F446C00E94280684E00E941D0688237F
:105A800019F082E48093B90688E00E941D068823FD
:105A900079F01091B9060E943509153409F46AC0ED
:105AA00008F062C0133409F477C0143409F4D4C088
:105AB00080E40E941D06882371F08091B906853428
:105AC00018F48F5F8093B9068091B906863419F473
:105AD00087E48093B90680E20E941D06882381F046
